{
  "_format": "hh-sol-artifact-1",
  "contractName": "AppointmentTokens",
  "sourceName": "contracts/AppointmentTokens.sol",
  "abi": [
    {
      "inputs": [
        {
          "internalType": "address",
          "name": "initialOwner",
          "type": "address"
        }
      ],
      "stateMutability": "nonpayable",
      "type": "constructor"
    },
    {
      "inputs": [
        {
          "internalType": "address",
          "name": "sender",
          "type": "address"
        },
        {
          "internalType": "uint256",
          "name": "tokenId",
          "type": "uint256"
        },
        {
          "internalType": "address",
          "name": "owner",
          "type": "address"
        }
      ],
      "name": "ERC721IncorrectOwner",
      "type": "error"
    },
    {
      "inputs": [
        {
          "internalType": "address",
          "name": "operator",
          "type": "address"
        },
        {
          "internalType": "uint256",
          "name": "tokenId",
          "type": "uint256"
        }
      ],
      "name": "ERC721InsufficientApproval",
      "type": "error"
    },
    {
      "inputs": [
        {
          "internalType": "address",
          "name": "approver",
          "type": "address"
        }
      ],
      "name": "ERC721InvalidApprover",
      "type": "error"
    },
    {
      "inputs": [
        {
          "internalType": "address",
          "name": "operator",
          "type": "address"
        }
      ],
      "name": "ERC721InvalidOperator",
      "type": "error"
    },
    {
      "inputs": [
        {
          "internalType": "address",
          "name": "owner",
          "type": "address"
        }
      ],
      "name": "ERC721InvalidOwner",
      "type": "error"
    },
    {
      "inputs": [
        {
          "internalType": "address",
          "name": "receiver",
          "type": "address"
        }
      ],
      "name": "ERC721InvalidReceiver",
      "type": "error"
    },
    {
      "inputs": [
        {
          "internalType": "address",
          "name": "sender",
          "type": "address"
        }
      ],
      "name": "ERC721InvalidSender",
      "type": "error"
    },
    {
      "inputs": [
        {
          "internalType": "uint256",
          "name": "tokenId",
          "type": "uint256"
        }
      ],
      "name": "ERC721NonexistentToken",
      "type": "error"
    },
    {
      "inputs": [
        {
          "internalType": "address",
          "name": "owner",
          "type": "address"
        }
      ],
      "name": "OwnableInvalidOwner",
      "type": "error"
    },
    {
      "inputs": [
        {
          "internalType": "address",
          "name": "account",
          "type": "address"
        }
      ],
      "name": "OwnableUnauthorizedAccount",
      "type": "error"
    },
    {
      "anonymous": false,
      "inputs": [
        {
          "indexed": true,
          "internalType": "address",
          "name": "owner",
          "type": "address"
        },
        {
          "indexed": true,
          "internalType": "address",
          "name": "approved",
          "type": "address"
        },
        {
          "indexed": true,
          "internalType": "uint256",
          "name": "tokenId",
          "type": "uint256"
        }
      ],
      "name": "Approval",
      "type": "event"
    },
    {
      "anonymous": false,
      "inputs": [
        {
          "indexed": true,
          "internalType": "address",
          "name": "owner",
          "type": "address"
        },
        {
          "indexed": true,
          "internalType": "address",
          "name": "operator",
          "type": "address"
        },
        {
          "indexed": false,
          "internalType": "bool",
          "name": "approved",
          "type": "bool"
        }
      ],
      "name": "ApprovalForAll",
      "type": "event"
    },
    {
      "anonymous": false,
      "inputs": [
        {
          "indexed": false,
          "internalType": "uint256",
          "name": "_fromTokenId",
          "type": "uint256"
        },
        {
          "indexed": false,
          "internalType": "uint256",
          "name": "_toTokenId",
          "type": "uint256"
        }
      ],
      "name": "BatchMetadataUpdate",
      "type": "event"
    },
    {
      "anonymous": false,
      "inputs": [
        {
          "indexed": false,
          "internalType": "uint256",
          "name": "_tokenId",
          "type": "uint256"
        }
      ],
      "name": "MetadataUpdate",
      "type": "event"
    },
    {
      "anonymous": false,
      "inputs": [
        {
          "indexed": true,
          "internalType": "address",
          "name": "previousOwner",
          "type": "address"
        },
        {
          "indexed": true,
          "internalType": "address",
          "name": "newOwner",
          "type": "address"
        }
      ],
      "name": "OwnershipTransferred",
      "type": "event"
    },
    {
      "anonymous": false,
      "inputs": [
        {
          "indexed": true,
          "internalType": "address",
          "name": "from",
          "type": "address"
        },
        {
          "indexed": true,
          "internalType": "address",
          "name": "to",
          "type": "address"
        },
        {
          "indexed": true,
          "internalType": "uint256",
          "name": "tokenId",
          "type": "uint256"
        }
      ],
      "name": "Transfer",
      "type": "event"
    },
    {
      "inputs": [
        {
          "internalType": "address",
          "name": "to",
          "type": "address"
        },
        {
          "internalType": "uint256",
          "name": "tokenId",
          "type": "uint256"
        }
      ],
      "name": "approve",
      "outputs": [],
      "stateMutability": "nonpayable",
      "type": "function"
    },
    {
      "inputs": [
        {
          "internalType": "address",
          "name": "owner",
          "type": "address"
        }
      ],
      "name": "balanceOf",
      "outputs": [
        {
          "internalType": "uint256",
          "name": "",
          "type": "uint256"
        }
      ],
      "stateMutability": "view",
      "type": "function"
    },
    {
      "inputs": [
        {
          "internalType": "uint256",
          "name": "tokenId",
          "type": "uint256"
        }
      ],
      "name": "burn",
      "outputs": [],
      "stateMutability": "nonpayable",
      "type": "function"
    },
    {
      "inputs": [
        {
          "internalType": "uint256",
          "name": "tokenId",
          "type": "uint256"
        }
      ],
      "name": "getApproved",
      "outputs": [
        {
          "internalType": "address",
          "name": "",
          "type": "address"
        }
      ],
      "stateMutability": "view",
      "type": "function"
    },
    {
      "inputs": [
        {
          "internalType": "address",
          "name": "owner",
          "type": "address"
        },
        {
          "internalType": "address",
          "name": "operator",
          "type": "address"
        }
      ],
      "name": "isApprovedForAll",
      "outputs": [
        {
          "internalType": "bool",
          "name": "",
          "type": "bool"
        }
      ],
      "stateMutability": "view",
      "type": "function"
    },
    {
      "inputs": [],
      "name": "name",
      "outputs": [
        {
          "internalType": "string",
          "name": "",
          "type": "string"
        }
      ],
      "stateMutability": "view",
      "type": "function"
    },
    {
      "inputs": [],
      "name": "owner",
      "outputs": [
        {
          "internalType": "address",
          "name": "",
          "type": "address"
        }
      ],
      "stateMutability": "view",
      "type": "function"
    },
    {
      "inputs": [
        {
          "internalType": "uint256",
          "name": "tokenId",
          "type": "uint256"
        }
      ],
      "name": "ownerOf",
      "outputs": [
        {
          "internalType": "address",
          "name": "",
          "type": "address"
        }
      ],
      "stateMutability": "view",
      "type": "function"
    },
    {
      "inputs": [],
      "name": "renounceOwnership",
      "outputs": [],
      "stateMutability": "nonpayable",
      "type": "function"
    },
    {
      "inputs": [
        {
          "internalType": "address",
          "name": "to",
          "type": "address"
        },
        {
          "internalType": "uint256",
          "name": "tokenId",
          "type": "uint256"
        },
        {
          "internalType": "string",
          "name": "uri",
          "type": "string"
        }
      ],
      "name": "safeMint",
      "outputs": [],
      "stateMutability": "nonpayable",
      "type": "function"
    },
    {
      "inputs": [
        {
          "internalType": "address",
          "name": "from",
          "type": "address"
        },
        {
          "internalType": "address",
          "name": "to",
          "type": "address"
        },
        {
          "internalType": "uint256",
          "name": "tokenId",
          "type": "uint256"
        }
      ],
      "name": "safeTransferFrom",
      "outputs": [],
      "stateMutability": "nonpayable",
      "type": "function"
    },
    {
      "inputs": [
        {
          "internalType": "address",
          "name": "from",
          "type": "address"
        },
        {
          "internalType": "address",
          "name": "to",
          "type": "address"
        },
        {
          "internalType": "uint256",
          "name": "tokenId",
          "type": "uint256"
        },
        {
          "internalType": "bytes",
          "name": "data",
          "type": "bytes"
        }
      ],
      "name": "safeTransferFrom",
      "outputs": [],
      "stateMutability": "nonpayable",
      "type": "function"
    },
    {
      "inputs": [
        {
          "internalType": "address",
          "name": "operator",
          "type": "address"
        },
        {
          "internalType": "bool",
          "name": "approved",
          "type": "bool"
        }
      ],
      "name": "setApprovalForAll",
      "outputs": [],
      "stateMutability": "nonpayable",
      "type": "function"
    },
    {
      "inputs": [
        {
          "internalType": "bytes4",
          "name": "interfaceId",
          "type": "bytes4"
        }
      ],
      "name": "supportsInterface",
      "outputs": [
        {
          "internalType": "bool",
          "name": "",
          "type": "bool"
        }
      ],
      "stateMutability": "view",
      "type": "function"
    },
    {
      "inputs": [],
      "name": "symbol",
      "outputs": [
        {
          "internalType": "string",
          "name": "",
          "type": "string"
        }
      ],
      "stateMutability": "view",
      "type": "function"
    },
    {
      "inputs": [
        {
          "internalType": "uint256",
          "name": "tokenId",
          "type": "uint256"
        }
      ],
      "name": "tokenURI",
      "outputs": [
        {
          "internalType": "string",
          "name": "",
          "type": "string"
        }
      ],
      "stateMutability": "view",
      "type": "function"
    },
    {
      "inputs": [
        {
          "internalType": "address",
          "name": "from",
          "type": "address"
        },
        {
          "internalType": "address",
          "name": "to",
          "type": "address"
        },
        {
          "internalType": "uint256",
          "name": "tokenId",
          "type": "uint256"
        }
      ],
      "name": "transferFrom",
      "outputs": [],
      "stateMutability": "nonpayable",
      "type": "function"
    },
    {
      "inputs": [
        {
          "internalType": "address",
          "name": "newOwner",
          "type": "address"
        }
      ],
      "name": "transferOwnership",
      "outputs": [],
      "stateMutability": "nonpayable",
      "type": "function"
    }
  ],
  "bytecode": "0x60806040523480156200001157600080fd5b5060405162002c9638038062002c96833981810160405281019062000037919062000288565b806040518060400160405280600b81526020017f4170706f696e746d656e740000000000000000000000000000000000000000008152506040518060400160405280600381526020017f41505000000000000000000000000000000000000000000000000000000000008152508160009081620000b5919062000534565b508060019081620000c7919062000534565b505050600073ffffffffffffffffffffffffffffffffffffffff168173ffffffffffffffffffffffffffffffffffffffff16036200013f5760006040517f1e4fbdf70000000000000000000000000000000000000000000000000000000081526004016200013691906200062c565b60405180910390fd5b62000150816200015860201b60201c565b505062000649565b6000600760009054906101000a900473ffffffffffffffffffffffffffffffffffffffff16905081600760006101000a81548173ffffffffffffffffffffffffffffffffffffffff021916908373ffffffffffffffffffffffffffffffffffffffff1602179055508173ffffffffffffffffffffffffffffffffffffffff168173ffffffffffffffffffffffffffffffffffffffff167f8be0079c531659141344cd1fd0a4f28419497f9722a3daafe3b4186f6b6457e060405160405180910390a35050565b600080fd5b600073ffffffffffffffffffffffffffffffffffffffff82169050919050565b6000620002508262000223565b9050919050565b620002628162000243565b81146200026e57600080fd5b50565b600081519050620002828162000257565b92915050565b600060208284031215620002a157620002a06200021e565b5b6000620002b18482850162000271565b91505092915050565b600081519050919050565b7f4e487b7100000000000000000000000000000000000000000000000000000000600052604160045260246000fd5b7f4e487b7100000000000000000000000000000000000000000000000000000000600052602260045260246000fd5b600060028204905060018216806200033c57607f821691505b602082108103620003525762000351620002f4565b5b50919050565b60008190508160005260206000209050919050565b60006020601f8301049050919050565b600082821b905092915050565b600060088302620003bc7fffffffffffffffffffffffffffffffffffffffffffffffffffffffffffffffff826200037d565b620003c886836200037d565b95508019841693508086168417925050509392505050565b6000819050919050565b6000819050919050565b6000620004156200040f6200040984620003e0565b620003ea565b620003e0565b9050919050565b6000819050919050565b6200043183620003f4565b6200044962000440826200041c565b8484546200038a565b825550505050565b600090565b6200046062000451565b6200046d81848462000426565b505050565b5b8181101562000495576200048960008262000456565b60018101905062000473565b5050565b601f821115620004e457620004ae8162000358565b620004b9846200036d565b81016020851015620004c9578190505b620004e1620004d8856200036d565b83018262000472565b50505b505050565b600082821c905092915050565b60006200050960001984600802620004e9565b1980831691505092915050565b6000620005248383620004f6565b9150826002028217905092915050565b6200053f82620002ba565b67ffffffffffffffff8111156200055b576200055a620002c5565b5b62000567825462000323565b6200057482828562000499565b600060209050601f831160018114620005ac576000841562000597578287015190505b620005a3858262000516565b86555062000613565b601f198416620005bc8662000358565b60005b82811015620005e657848901518255600182019150602085019450602081019050620005bf565b8683101562000606578489015162000602601f891682620004f6565b8355505b6001600288020188555050505b505050505050565b620006268162000243565b82525050565b60006020820190506200064360008301846200061b565b92915050565b61263d80620006596000396000f3fe608060405234801561001057600080fd5b50600436106101165760003560e01c8063715018a6116100a2578063b88d4fde11610071578063b88d4fde146102cb578063c87b56dd146102e7578063cd279c7c14610317578063e985e9c514610333578063f2fde38b1461036357610116565b8063715018a6146102695780638da5cb5b1461027357806395d89b4114610291578063a22cb465146102af57610116565b806323b872dd116100e957806323b872dd146101b557806342842e0e146101d157806342966c68146101ed5780636352211e1461020957806370a082311461023957610116565b806301ffc9a71461011b57806306fdde031461014b578063081812fc14610169578063095ea7b314610199575b600080fd5b61013560048036038101906101309190611af9565b61037f565b6040516101429190611b41565b60405180910390f35b610153610391565b6040516101609190611bec565b60405180910390f35b610183600480360381019061017e9190611c44565b610423565b6040516101909190611cb2565b60405180910390f35b6101b360048036038101906101ae9190611cf9565b61043f565b005b6101cf60048036038101906101ca9190611d39565b610455565b005b6101eb60048036038101906101e69190611d39565b610557565b005b61020760048036038101906102029190611c44565b610577565b005b610223600480360381019061021e9190611c44565b61058e565b6040516102309190611cb2565b60405180910390f35b610253600480360381019061024e9190611d8c565b6105a0565b6040516102609190611dc8565b60405180910390f35b61027161065a565b005b61027b61066e565b6040516102889190611cb2565b60405180910390f35b610299610698565b6040516102a69190611bec565b60405180910390f35b6102c960048036038101906102c49190611e0f565b61072a565b005b6102e560048036038101906102e09190611f84565b610740565b005b61030160048036038101906102fc9190611c44565b61075d565b60405161030e9190611bec565b60405180910390f35b610331600480360381019061032c91906120a8565b61076f565b005b61034d60048036038101906103489190612117565b610790565b60405161035a9190611b41565b60405180910390f35b61037d60048036038101906103789190611d8c565b610824565b005b600061038a826108aa565b9050919050565b6060600080546103a090612186565b80601f01602080910402602001604051908101604052809291908181526020018280546103cc90612186565b80156104195780601f106103ee57610100808354040283529160200191610419565b820191906000526020600020905b8154815290600101906020018083116103fc57829003601f168201915b5050505050905090565b600061042e8261090b565b5061043882610993565b9050919050565b610451828261044c6109d0565b6109d8565b5050565b600073ffffffffffffffffffffffffffffffffffffffff168273ffffffffffffffffffffffffffffffffffffffff16036104c75760006040517f64a0ae920000000000000000000000000000000000000000000000000000000081526004016104be9190611cb2565b60405180910390fd5b60006104db83836104d66109d0565b6109ea565b90508373ffffffffffffffffffffffffffffffffffffffff168173ffffffffffffffffffffffffffffffffffffffff1614610551578382826040517f64283d7b000000000000000000000000000000000000000000000000000000008152600401610548939291906121b7565b60405180910390fd5b50505050565b61057283838360405180602001604052806000815250610740565b505050565b61058a6000826105856109d0565b6109ea565b5050565b60006105998261090b565b9050919050565b60008073ffffffffffffffffffffffffffffffffffffffff168273ffffffffffffffffffffffffffffffffffffffff16036106135760006040517f89c62b6400000000000000000000000000000000000000000000000000000000815260040161060a9190611cb2565b60405180910390fd5b600360008373ffffffffffffffffffffffffffffffffffffffff1673ffffffffffffffffffffffffffffffffffffffff168152602001908152602001600020549050919050565b610662610c04565b61066c6000610c8b565b565b6000600760009054906101000a900473ffffffffffffffffffffffffffffffffffffffff16905090565b6060600180546106a790612186565b80601f01602080910402602001604051908101604052809291908181526020018280546106d390612186565b80156107205780601f106106f557610100808354040283529160200191610720565b820191906000526020600020905b81548152906001019060200180831161070357829003601f168201915b5050505050905090565b61073c6107356109d0565b8383610d51565b5050565b61074b848484610455565b61075784848484610ec0565b50505050565b606061076882611077565b9050919050565b610777610c04565b610781838361118a565b61078b82826111a8565b505050565b6000600560008473ffffffffffffffffffffffffffffffffffffffff1673ffffffffffffffffffffffffffffffffffffffff16815260200190815260200160002060008373ffffffffffffffffffffffffffffffffffffffff1673ffffffffffffffffffffffffffffffffffffffff16815260200190815260200160002060009054906101000a900460ff16905092915050565b61082c610c04565b600073ffffffffffffffffffffffffffffffffffffffff168173ffffffffffffffffffffffffffffffffffffffff160361089e5760006040517f1e4fbdf70000000000000000000000000000000000000000000000000000000081526004016108959190611cb2565b60405180910390fd5b6108a781610c8b565b50565b6000634906490660e01b7bffffffffffffffffffffffffffffffffffffffffffffffffffffffff1916827bffffffffffffffffffffffffffffffffffffffffffffffffffffffff19161480610904575061090382611204565b5b9050919050565b600080610917836112e6565b9050600073ffffffffffffffffffffffffffffffffffffffff168173ffffffffffffffffffffffffffffffffffffffff160361098a57826040517f7e2732890000000000000000000000000000000000000000000000000000000081526004016109819190611dc8565b60405180910390fd5b80915050919050565b60006004600083815260200190815260200160002060009054906101000a900473ffffffffffffffffffffffffffffffffffffffff169050919050565b600033905090565b6109e58383836001611323565b505050565b6000806109f6846112e6565b9050600073ffffffffffffffffffffffffffffffffffffffff168373ffffffffffffffffffffffffffffffffffffffff1614610a3857610a378184866114e8565b5b600073ffffffffffffffffffffffffffffffffffffffff168173ffffffffffffffffffffffffffffffffffffffff1614610ac957610a7a600085600080611323565b6001600360008373ffffffffffffffffffffffffffffffffffffffff1673ffffffffffffffffffffffffffffffffffffffff168152602001908152602001600020600082825403925050819055505b600073ffffffffffffffffffffffffffffffffffffffff168573ffffffffffffffffffffffffffffffffffffffff1614610b4c576001600360008773ffffffffffffffffffffffffffffffffffffffff1673ffffffffffffffffffffffffffffffffffffffff168152602001908152602001600020600082825401925050819055505b846002600086815260200190815260200160002060006101000a81548173ffffffffffffffffffffffffffffffffffffffff021916908373ffffffffffffffffffffffffffffffffffffffff160217905550838573ffffffffffffffffffffffffffffffffffffffff168273ffffffffffffffffffffffffffffffffffffffff167fddf252ad1be2c89b69c2b068fc378daa952ba7f163c4a11628f55a4df523b3ef60405160405180910390a4809150509392505050565b610c0c6109d0565b73ffffffffffffffffffffffffffffffffffffffff16610c2a61066e565b73ffffffffffffffffffffffffffffffffffffffff1614610c8957610c4d6109d0565b6040517f118cdaa7000000000000000000000000000000000000000000000000000000008152600401610c809190611cb2565b60405180910390fd5b565b6000600760009054906101000a900473ffffffffffffffffffffffffffffffffffffffff16905081600760006101000a81548173ffffffffffffffffffffffffffffffffffffffff021916908373ffffffffffffffffffffffffffffffffffffffff1602179055508173ffffffffffffffffffffffffffffffffffffffff168173ffffffffffffffffffffffffffffffffffffffff167f8be0079c531659141344cd1fd0a4f28419497f9722a3daafe3b4186f6b6457e060405160405180910390a35050565b600073ffffffffffffffffffffffffffffffffffffffff168273ffffffffffffffffffffffffffffffffffffffff1603610dc257816040517f5b08ba18000000000000000000000000000000000000000000000000000000008152600401610db99190611cb2565b60405180910390fd5b80600560008573ffffffffffffffffffffffffffffffffffffffff1673ffffffffffffffffffffffffffffffffffffffff16815260200190815260200160002060008473ffffffffffffffffffffffffffffffffffffffff1673ffffffffffffffffffffffffffffffffffffffff16815260200190815260200160002060006101000a81548160ff0219169083151502179055508173ffffffffffffffffffffffffffffffffffffffff168373ffffffffffffffffffffffffffffffffffffffff167f17307eab39ab6107e8899845ad3d59bd9653f200f220920489ca2b5937696c3183604051610eb39190611b41565b60405180910390a3505050565b60008373ffffffffffffffffffffffffffffffffffffffff163b1115611071578273ffffffffffffffffffffffffffffffffffffffff1663150b7a02610f046109d0565b8685856040518563ffffffff1660e01b8152600401610f269493929190612243565b6020604051808303816000875af1925050508015610f6257506040513d601f19601f82011682018060405250810190610f5f91906122a4565b60015b610fe6573d8060008114610f92576040519150601f19603f3d011682016040523d82523d6000602084013e610f97565b606091505b506000815103610fde57836040517f64a0ae92000000000000000000000000000000000000000000000000000000008152600401610fd59190611cb2565b60405180910390fd5b805181602001fd5b63150b7a0260e01b7bffffffffffffffffffffffffffffffffffffffffffffffffffffffff1916817bffffffffffffffffffffffffffffffffffffffffffffffffffffffff19161461106f57836040517f64a0ae920000000000000000000000000000000000000000000000000000000081526004016110669190611cb2565b60405180910390fd5b505b50505050565b60606110828261090b565b5060006006600084815260200190815260200160002080546110a390612186565b80601f01602080910402602001604051908101604052809291908181526020018280546110cf90612186565b801561111c5780601f106110f15761010080835404028352916020019161111c565b820191906000526020600020905b8154815290600101906020018083116110ff57829003601f168201915b50505050509050600061112d6115ac565b90506000815103611142578192505050611185565b60008251111561117757808260405160200161115f92919061230d565b60405160208183030381529060405292505050611185565b611180846115c3565b925050505b919050565b6111a482826040518060200160405280600081525061162c565b5050565b806006600084815260200190815260200160002090816111c891906124dd565b507ff8e1a15aba9398e019f0b49df1a4fde98ee17ae345cb5f6b5e2c27f5033e8ce7826040516111f89190611dc8565b60405180910390a15050565b60007f80ac58cd000000000000000000000000000000000000000000000000000000007bffffffffffffffffffffffffffffffffffffffffffffffffffffffff1916827bffffffffffffffffffffffffffffffffffffffffffffffffffffffff191614806112cf57507f5b5e139f000000000000000000000000000000000000000000000000000000007bffffffffffffffffffffffffffffffffffffffffffffffffffffffff1916827bffffffffffffffffffffffffffffffffffffffffffffffffffffffff1916145b806112df57506112de82611648565b5b9050919050565b60006002600083815260200190815260200160002060009054906101000a900473ffffffffffffffffffffffffffffffffffffffff169050919050565b808061135c5750600073ffffffffffffffffffffffffffffffffffffffff168273ffffffffffffffffffffffffffffffffffffffff1614155b1561149057600061136c8461090b565b9050600073ffffffffffffffffffffffffffffffffffffffff168373ffffffffffffffffffffffffffffffffffffffff16141580156113d757508273ffffffffffffffffffffffffffffffffffffffff168173ffffffffffffffffffffffffffffffffffffffff1614155b80156113ea57506113e88184610790565b155b1561142c57826040517fa9fbf51f0000000000000000000000000000000000000000000000000000000081526004016114239190611cb2565b60405180910390fd5b811561148e57838573ffffffffffffffffffffffffffffffffffffffff168273ffffffffffffffffffffffffffffffffffffffff167f8c5be1e5ebec7d5bd14f71427d1e84f3dd0314c0f7b2291e5b200ac8c7c3b92560405160405180910390a45b505b836004600085815260200190815260200160002060006101000a81548173ffffffffffffffffffffffffffffffffffffffff021916908373ffffffffffffffffffffffffffffffffffffffff16021790555050505050565b6114f38383836116b2565b6115a757600073ffffffffffffffffffffffffffffffffffffffff168373ffffffffffffffffffffffffffffffffffffffff160361156857806040517f7e27328900000000000000000000000000000000000000000000000000000000815260040161155f9190611dc8565b60405180910390fd5b81816040517f177e802f00000000000000000000000000000000000000000000000000000000815260040161159e9291906125af565b60405180910390fd5b505050565b606060405180602001604052806000815250905090565b60606115ce8261090b565b5060006115d96115ac565b905060008151116115f95760405180602001604052806000815250611624565b8061160384611773565b60405160200161161492919061230d565b6040516020818303038152906040525b915050919050565b6116368383611841565b6116436000848484610ec0565b505050565b60007f01ffc9a7000000000000000000000000000000000000000000000000000000007bffffffffffffffffffffffffffffffffffffffffffffffffffffffff1916827bffffffffffffffffffffffffffffffffffffffffffffffffffffffff1916149050919050565b60008073ffffffffffffffffffffffffffffffffffffffff168373ffffffffffffffffffffffffffffffffffffffff161415801561176a57508273ffffffffffffffffffffffffffffffffffffffff168473ffffffffffffffffffffffffffffffffffffffff16148061172b575061172a8484610790565b5b8061176957508273ffffffffffffffffffffffffffffffffffffffff1661175183610993565b73ffffffffffffffffffffffffffffffffffffffff16145b5b90509392505050565b6060600060016117828461193a565b01905060008167ffffffffffffffff8111156117a1576117a0611e59565b5b6040519080825280601f01601f1916602001820160405280156117d35781602001600182028036833780820191505090505b509050600082602001820190505b600115611836578080600190039150507f3031323334353637383961626364656600000000000000000000000000000000600a86061a8153600a858161182a576118296125d8565b5b049450600085036117e1575b819350505050919050565b600073ffffffffffffffffffffffffffffffffffffffff168273ffffffffffffffffffffffffffffffffffffffff16036118b35760006040517f64a0ae920000000000000000000000000000000000000000000000000000000081526004016118aa9190611cb2565b60405180910390fd5b60006118c1838360006109ea565b9050600073ffffffffffffffffffffffffffffffffffffffff168173ffffffffffffffffffffffffffffffffffffffff16146119355760006040517f73c6ac6e00000000000000000000000000000000000000000000000000000000815260040161192c9190611cb2565b60405180910390fd5b505050565b600080600090507a184f03e93ff9f4daa797ed6e38ed64bf6a1f0100000000000000008310611998577a184f03e93ff9f4daa797ed6e38ed64bf6a1f010000000000000000838161198e5761198d6125d8565b5b0492506040810190505b6d04ee2d6d415b85acef810000000083106119d5576d04ee2d6d415b85acef810000000083816119cb576119ca6125d8565b5b0492506020810190505b662386f26fc100008310611a0457662386f26fc1000083816119fa576119f96125d8565b5b0492506010810190505b6305f5e1008310611a2d576305f5e1008381611a2357611a226125d8565b5b0492506008810190505b6127108310611a52576127108381611a4857611a476125d8565b5b0492506004810190505b60648310611a755760648381611a6b57611a6a6125d8565b5b0492506002810190505b600a8310611a84576001810190505b80915050919050565b6000604051905090565b600080fd5b600080fd5b60007fffffffff0000000000000000000000000000000000000000000000000000000082169050919050565b611ad681611aa1565b8114611ae157600080fd5b50565b600081359050611af381611acd565b92915050565b600060208284031215611b0f57611b0e611a97565b5b6000611b1d84828501611ae4565b91505092915050565b60008115159050919050565b611b3b81611b26565b82525050565b6000602082019050611b566000830184611b32565b92915050565b600081519050919050565b600082825260208201905092915050565b60005b83811015611b96578082015181840152602081019050611b7b565b60008484015250505050565b6000601f19601f8301169050919050565b6000611bbe82611b5c565b611bc88185611b67565b9350611bd8818560208601611b78565b611be181611ba2565b840191505092915050565b60006020820190508181036000830152611c068184611bb3565b905092915050565b6000819050919050565b611c2181611c0e565b8114611c2c57600080fd5b50565b600081359050611c3e81611c18565b92915050565b600060208284031215611c5a57611c59611a97565b5b6000611c6884828501611c2f565b91505092915050565b600073ffffffffffffffffffffffffffffffffffffffff82169050919050565b6000611c9c82611c71565b9050919050565b611cac81611c91565b82525050565b6000602082019050611cc76000830184611ca3565b92915050565b611cd681611c91565b8114611ce157600080fd5b50565b600081359050611cf381611ccd565b92915050565b60008060408385031215611d1057611d0f611a97565b5b6000611d1e85828601611ce4565b9250506020611d2f85828601611c2f565b9150509250929050565b600080600060608486031215611d5257611d51611a97565b5b6000611d6086828701611ce4565b9350506020611d7186828701611ce4565b9250506040611d8286828701611c2f565b9150509250925092565b600060208284031215611da257611da1611a97565b5b6000611db084828501611ce4565b91505092915050565b611dc281611c0e565b82525050565b6000602082019050611ddd6000830184611db9565b92915050565b611dec81611b26565b8114611df757600080fd5b50565b600081359050611e0981611de3565b92915050565b60008060408385031215611e2657611e25611a97565b5b6000611e3485828601611ce4565b9250506020611e4585828601611dfa565b9150509250929050565b600080fd5b600080fd5b7f4e487b7100000000000000000000000000000000000000000000000000000000600052604160045260246000fd5b611e9182611ba2565b810181811067ffffffffffffffff82111715611eb057611eaf611e59565b5b80604052505050565b6000611ec3611a8d565b9050611ecf8282611e88565b919050565b600067ffffffffffffffff821115611eef57611eee611e59565b5b611ef882611ba2565b9050602081019050919050565b82818337600083830152505050565b6000611f27611f2284611ed4565b611eb9565b905082815260208101848484011115611f4357611f42611e54565b5b611f4e848285611f05565b509392505050565b600082601f830112611f6b57611f6a611e4f565b5b8135611f7b848260208601611f14565b91505092915050565b60008060008060808587031215611f9e57611f9d611a97565b5b6000611fac87828801611ce4565b9450506020611fbd87828801611ce4565b9350506040611fce87828801611c2f565b925050606085013567ffffffffffffffff811115611fef57611fee611a9c565b5b611ffb87828801611f56565b91505092959194509250565b600067ffffffffffffffff82111561202257612021611e59565b5b61202b82611ba2565b9050602081019050919050565b600061204b61204684612007565b611eb9565b90508281526020810184848401111561206757612066611e54565b5b612072848285611f05565b509392505050565b600082601f83011261208f5761208e611e4f565b5b813561209f848260208601612038565b91505092915050565b6000806000606084860312156120c1576120c0611a97565b5b60006120cf86828701611ce4565b93505060206120e086828701611c2f565b925050604084013567ffffffffffffffff81111561210157612100611a9c565b5b61210d8682870161207a565b9150509250925092565b6000806040838503121561212e5761212d611a97565b5b600061213c85828601611ce4565b925050602061214d85828601611ce4565b9150509250929050565b7f4e487b7100000000000000000000000000000000000000000000000000000000600052602260045260246000fd5b6000600282049050600182168061219e57607f821691505b6020821081036121b1576121b0612157565b5b50919050565b60006060820190506121cc6000830186611ca3565b6121d96020830185611db9565b6121e66040830184611ca3565b949350505050565b600081519050919050565b600082825260208201905092915050565b6000612215826121ee565b61221f81856121f9565b935061222f818560208601611b78565b61223881611ba2565b840191505092915050565b60006080820190506122586000830187611ca3565b6122656020830186611ca3565b6122726040830185611db9565b8181036060830152612284818461220a565b905095945050505050565b60008151905061229e81611acd565b92915050565b6000602082840312156122ba576122b9611a97565b5b60006122c88482850161228f565b91505092915050565b600081905092915050565b60006122e782611b5c565b6122f181856122d1565b9350612301818560208601611b78565b80840191505092915050565b600061231982856122dc565b915061232582846122dc565b91508190509392505050565b60008190508160005260206000209050919050565b60006020601f8301049050919050565b600082821b905092915050565b6000600883026123937fffffffffffffffffffffffffffffffffffffffffffffffffffffffffffffffff82612356565b61239d8683612356565b95508019841693508086168417925050509392505050565b6000819050919050565b60006123da6123d56123d084611c0e565b6123b5565b611c0e565b9050919050565b6000819050919050565b6123f4836123bf565b612408612400826123e1565b848454612363565b825550505050565b600090565b61241d612410565b6124288184846123eb565b505050565b5b8181101561244c57612441600082612415565b60018101905061242e565b5050565b601f8211156124915761246281612331565b61246b84612346565b8101602085101561247a578190505b61248e61248685612346565b83018261242d565b50505b505050565b600082821c905092915050565b60006124b460001984600802612496565b1980831691505092915050565b60006124cd83836124a3565b9150826002028217905092915050565b6124e682611b5c565b67ffffffffffffffff8111156124ff576124fe611e59565b5b6125098254612186565b612514828285612450565b600060209050601f8311600181146125475760008415612535578287015190505b61253f85826124c1565b8655506125a7565b601f19841661255586612331565b60005b8281101561257d57848901518255600182019150602085019450602081019050612558565b8683101561259a5784890151612596601f8916826124a3565b8355505b6001600288020188555050505b505050505050565b60006040820190506125c46000830185611ca3565b6125d16020830184611db9565b9392505050565b7f4e487b7100000000000000000000000000000000000000000000000000000000600052601260045260246000fdfea2646970667358221220055e3a26311636ce892a0f625184d9f8d48c362cc7b9ee7439df569e274b1a6764736f6c63430008140033",
  "linkReferences": {},
  "deployedLinkReferences": {}
}