{
  "_format": "hh-sol-artifact-1",
  "contractName": "AppointmentTokens",
  "sourceName": "contracts/AppointmentTokens.sol",
  "abi": [
    {
      "inputs": [
        {
          "internalType": "address",
          "name": "initialOwner",
          "type": "address"
        },
        {
          "internalType": "address",
          "name": "_prescriptionsContract",
          "type": "address"
        }
      ],
      "stateMutability": "nonpayable",
      "type": "constructor"
    },
    {
      "inputs": [
        {
          "internalType": "address",
          "name": "sender",
          "type": "address"
        },
        {
          "internalType": "uint256",
          "name": "tokenId",
          "type": "uint256"
        },
        {
          "internalType": "address",
          "name": "owner",
          "type": "address"
        }
      ],
      "name": "ERC721IncorrectOwner",
      "type": "error"
    },
    {
      "inputs": [
        {
          "internalType": "address",
          "name": "operator",
          "type": "address"
        },
        {
          "internalType": "uint256",
          "name": "tokenId",
          "type": "uint256"
        }
      ],
      "name": "ERC721InsufficientApproval",
      "type": "error"
    },
    {
      "inputs": [
        {
          "internalType": "address",
          "name": "approver",
          "type": "address"
        }
      ],
      "name": "ERC721InvalidApprover",
      "type": "error"
    },
    {
      "inputs": [
        {
          "internalType": "address",
          "name": "operator",
          "type": "address"
        }
      ],
      "name": "ERC721InvalidOperator",
      "type": "error"
    },
    {
      "inputs": [
        {
          "internalType": "address",
          "name": "owner",
          "type": "address"
        }
      ],
      "name": "ERC721InvalidOwner",
      "type": "error"
    },
    {
      "inputs": [
        {
          "internalType": "address",
          "name": "receiver",
          "type": "address"
        }
      ],
      "name": "ERC721InvalidReceiver",
      "type": "error"
    },
    {
      "inputs": [
        {
          "internalType": "address",
          "name": "sender",
          "type": "address"
        }
      ],
      "name": "ERC721InvalidSender",
      "type": "error"
    },
    {
      "inputs": [
        {
          "internalType": "uint256",
          "name": "tokenId",
          "type": "uint256"
        }
      ],
      "name": "ERC721NonexistentToken",
      "type": "error"
    },
    {
      "inputs": [
        {
          "internalType": "address",
          "name": "owner",
          "type": "address"
        }
      ],
      "name": "OwnableInvalidOwner",
      "type": "error"
    },
    {
      "inputs": [
        {
          "internalType": "address",
          "name": "account",
          "type": "address"
        }
      ],
      "name": "OwnableUnauthorizedAccount",
      "type": "error"
    },
    {
      "anonymous": false,
      "inputs": [
        {
          "indexed": true,
          "internalType": "address",
          "name": "owner",
          "type": "address"
        },
        {
          "indexed": true,
          "internalType": "address",
          "name": "approved",
          "type": "address"
        },
        {
          "indexed": true,
          "internalType": "uint256",
          "name": "tokenId",
          "type": "uint256"
        }
      ],
      "name": "Approval",
      "type": "event"
    },
    {
      "anonymous": false,
      "inputs": [
        {
          "indexed": true,
          "internalType": "address",
          "name": "owner",
          "type": "address"
        },
        {
          "indexed": true,
          "internalType": "address",
          "name": "operator",
          "type": "address"
        },
        {
          "indexed": false,
          "internalType": "bool",
          "name": "approved",
          "type": "bool"
        }
      ],
      "name": "ApprovalForAll",
      "type": "event"
    },
    {
      "anonymous": false,
      "inputs": [
        {
          "indexed": false,
          "internalType": "uint256",
          "name": "_fromTokenId",
          "type": "uint256"
        },
        {
          "indexed": false,
          "internalType": "uint256",
          "name": "_toTokenId",
          "type": "uint256"
        }
      ],
      "name": "BatchMetadataUpdate",
      "type": "event"
    },
    {
      "anonymous": false,
      "inputs": [
        {
          "indexed": false,
          "internalType": "uint256",
          "name": "_tokenId",
          "type": "uint256"
        }
      ],
      "name": "MetadataUpdate",
      "type": "event"
    },
    {
      "anonymous": false,
      "inputs": [
        {
          "indexed": true,
          "internalType": "address",
          "name": "previousOwner",
          "type": "address"
        },
        {
          "indexed": true,
          "internalType": "address",
          "name": "newOwner",
          "type": "address"
        }
      ],
      "name": "OwnershipTransferred",
      "type": "event"
    },
    {
      "anonymous": false,
      "inputs": [
        {
          "indexed": true,
          "internalType": "address",
          "name": "from",
          "type": "address"
        },
        {
          "indexed": true,
          "internalType": "address",
          "name": "to",
          "type": "address"
        },
        {
          "indexed": true,
          "internalType": "uint256",
          "name": "tokenId",
          "type": "uint256"
        }
      ],
      "name": "Transfer",
      "type": "event"
    },
    {
      "inputs": [
        {
          "internalType": "address",
          "name": "to",
          "type": "address"
        },
        {
          "internalType": "uint256",
          "name": "tokenId",
          "type": "uint256"
        }
      ],
      "name": "approve",
      "outputs": [],
      "stateMutability": "nonpayable",
      "type": "function"
    },
    {
      "inputs": [
        {
          "internalType": "address",
          "name": "owner",
          "type": "address"
        }
      ],
      "name": "balanceOf",
      "outputs": [
        {
          "internalType": "uint256",
          "name": "",
          "type": "uint256"
        }
      ],
      "stateMutability": "view",
      "type": "function"
    },
    {
      "inputs": [
        {
          "internalType": "uint256",
          "name": "tokenId",
          "type": "uint256"
        }
      ],
      "name": "burn",
      "outputs": [],
      "stateMutability": "nonpayable",
      "type": "function"
    },
    {
      "inputs": [
        {
          "internalType": "uint256",
          "name": "tokenId",
          "type": "uint256"
        }
      ],
      "name": "getAppointmentCategory",
      "outputs": [
        {
          "internalType": "uint256",
          "name": "",
          "type": "uint256"
        }
      ],
      "stateMutability": "view",
      "type": "function"
    },
    {
      "inputs": [
        {
          "internalType": "uint256",
          "name": "tokenId",
          "type": "uint256"
        }
      ],
      "name": "getApproved",
      "outputs": [
        {
          "internalType": "address",
          "name": "",
          "type": "address"
        }
      ],
      "stateMutability": "view",
      "type": "function"
    },
    {
      "inputs": [
        {
          "internalType": "address",
          "name": "owner",
          "type": "address"
        },
        {
          "internalType": "address",
          "name": "operator",
          "type": "address"
        }
      ],
      "name": "isApprovedForAll",
      "outputs": [
        {
          "internalType": "bool",
          "name": "",
          "type": "bool"
        }
      ],
      "stateMutability": "view",
      "type": "function"
    },
    {
      "inputs": [],
      "name": "name",
      "outputs": [
        {
          "internalType": "string",
          "name": "",
          "type": "string"
        }
      ],
      "stateMutability": "view",
      "type": "function"
    },
    {
      "inputs": [],
      "name": "owner",
      "outputs": [
        {
          "internalType": "address",
          "name": "",
          "type": "address"
        }
      ],
      "stateMutability": "view",
      "type": "function"
    },
    {
      "inputs": [
        {
          "internalType": "uint256",
          "name": "tokenId",
          "type": "uint256"
        }
      ],
      "name": "ownerOf",
      "outputs": [
        {
          "internalType": "address",
          "name": "",
          "type": "address"
        }
      ],
      "stateMutability": "view",
      "type": "function"
    },
    {
      "inputs": [],
      "name": "renounceOwnership",
      "outputs": [],
      "stateMutability": "nonpayable",
      "type": "function"
    },
    {
      "inputs": [
        {
          "internalType": "uint256",
          "name": "tokenId",
          "type": "uint256"
        },
        {
          "internalType": "string",
          "name": "uri",
          "type": "string"
        },
        {
          "internalType": "uint256",
          "name": "category",
          "type": "uint256"
        }
      ],
      "name": "safeMint",
      "outputs": [],
      "stateMutability": "nonpayable",
      "type": "function"
    },
    {
      "inputs": [
        {
          "internalType": "address",
          "name": "from",
          "type": "address"
        },
        {
          "internalType": "address",
          "name": "to",
          "type": "address"
        },
        {
          "internalType": "uint256",
          "name": "tokenId",
          "type": "uint256"
        }
      ],
      "name": "safeTransferFrom",
      "outputs": [],
      "stateMutability": "nonpayable",
      "type": "function"
    },
    {
      "inputs": [
        {
          "internalType": "address",
          "name": "from",
          "type": "address"
        },
        {
          "internalType": "address",
          "name": "to",
          "type": "address"
        },
        {
          "internalType": "uint256",
          "name": "tokenId",
          "type": "uint256"
        },
        {
          "internalType": "bytes",
          "name": "data",
          "type": "bytes"
        }
      ],
      "name": "safeTransferFrom",
      "outputs": [],
      "stateMutability": "nonpayable",
      "type": "function"
    },
    {
      "inputs": [
        {
          "internalType": "address",
          "name": "operator",
          "type": "address"
        },
        {
          "internalType": "bool",
          "name": "approved",
          "type": "bool"
        }
      ],
      "name": "setApprovalForAll",
      "outputs": [],
      "stateMutability": "nonpayable",
      "type": "function"
    },
    {
      "inputs": [
        {
          "internalType": "bytes4",
          "name": "interfaceId",
          "type": "bytes4"
        }
      ],
      "name": "supportsInterface",
      "outputs": [
        {
          "internalType": "bool",
          "name": "",
          "type": "bool"
        }
      ],
      "stateMutability": "view",
      "type": "function"
    },
    {
      "inputs": [],
      "name": "symbol",
      "outputs": [
        {
          "internalType": "string",
          "name": "",
          "type": "string"
        }
      ],
      "stateMutability": "view",
      "type": "function"
    },
    {
      "inputs": [
        {
          "internalType": "uint256",
          "name": "tokenId",
          "type": "uint256"
        }
      ],
      "name": "tokenURI",
      "outputs": [
        {
          "internalType": "string",
          "name": "",
          "type": "string"
        }
      ],
      "stateMutability": "view",
      "type": "function"
    },
    {
      "inputs": [
        {
          "internalType": "address",
          "name": "from",
          "type": "address"
        },
        {
          "internalType": "address",
          "name": "to",
          "type": "address"
        },
        {
          "internalType": "uint256",
          "name": "tokenId",
          "type": "uint256"
        }
      ],
      "name": "transferFrom",
      "outputs": [],
      "stateMutability": "nonpayable",
      "type": "function"
    },
    {
      "inputs": [
        {
          "internalType": "address",
          "name": "newOwner",
          "type": "address"
        }
      ],
      "name": "transferOwnership",
      "outputs": [],
      "stateMutability": "nonpayable",
      "type": "function"
    }
  ],
  "bytecode": "0x60806040523480156200001157600080fd5b5060405162002d8138038062002d818339818101604052810190620000379190620002ca565b816040518060400160405280600b81526020017f4170706f696e746d656e740000000000000000000000000000000000000000008152506040518060400160405280600381526020017f41505000000000000000000000000000000000000000000000000000000000008152508160009081620000b591906200058b565b508060019081620000c791906200058b565b505050600073ffffffffffffffffffffffffffffffffffffffff168173ffffffffffffffffffffffffffffffffffffffff16036200013f5760006040517f1e4fbdf700000000000000000000000000000000000000000000000000000000815260040162000136919062000683565b60405180910390fd5b62000150816200019a60201b60201c565b5080600960006101000a81548173ffffffffffffffffffffffffffffffffffffffff021916908373ffffffffffffffffffffffffffffffffffffffff1602179055505050620006a0565b6000600760009054906101000a900473ffffffffffffffffffffffffffffffffffffffff16905081600760006101000a81548173ffffffffffffffffffffffffffffffffffffffff021916908373ffffffffffffffffffffffffffffffffffffffff1602179055508173ffffffffffffffffffffffffffffffffffffffff168173ffffffffffffffffffffffffffffffffffffffff167f8be0079c531659141344cd1fd0a4f28419497f9722a3daafe3b4186f6b6457e060405160405180910390a35050565b600080fd5b600073ffffffffffffffffffffffffffffffffffffffff82169050919050565b6000620002928262000265565b9050919050565b620002a48162000285565b8114620002b057600080fd5b50565b600081519050620002c48162000299565b92915050565b60008060408385031215620002e457620002e362000260565b5b6000620002f485828601620002b3565b92505060206200030785828601620002b3565b9150509250929050565b600081519050919050565b7f4e487b7100000000000000000000000000000000000000000000000000000000600052604160045260246000fd5b7f4e487b7100000000000000000000000000000000000000000000000000000000600052602260045260246000fd5b600060028204905060018216806200039357607f821691505b602082108103620003a957620003a86200034b565b5b50919050565b60008190508160005260206000209050919050565b60006020601f8301049050919050565b600082821b905092915050565b600060088302620004137fffffffffffffffffffffffffffffffffffffffffffffffffffffffffffffffff82620003d4565b6200041f8683620003d4565b95508019841693508086168417925050509392505050565b6000819050919050565b6000819050919050565b60006200046c62000466620004608462000437565b62000441565b62000437565b9050919050565b6000819050919050565b62000488836200044b565b620004a0620004978262000473565b848454620003e1565b825550505050565b600090565b620004b7620004a8565b620004c48184846200047d565b505050565b5b81811015620004ec57620004e0600082620004ad565b600181019050620004ca565b5050565b601f8211156200053b576200050581620003af565b6200051084620003c4565b8101602085101562000520578190505b620005386200052f85620003c4565b830182620004c9565b50505b505050565b600082821c905092915050565b6000620005606000198460080262000540565b1980831691505092915050565b60006200057b83836200054d565b9150826002028217905092915050565b620005968262000311565b67ffffffffffffffff811115620005b257620005b16200031c565b5b620005be82546200037a565b620005cb828285620004f0565b600060209050601f831160018114620006035760008415620005ee578287015190505b620005fa85826200056d565b8655506200066a565b601f1984166200061386620003af565b60005b828110156200063d5784890151825560018201915060208501945060208101905062000616565b868310156200065d578489015162000659601f8916826200054d565b8355505b6001600288020188555050505b505050505050565b6200067d8162000285565b82525050565b60006020820190506200069a600083018462000672565b92915050565b6126d180620006b06000396000f3fe608060405234801561001057600080fd5b50600436106101215760003560e01c80636352211e116100ad578063a22cb46511610071578063a22cb46514610306578063b88d4fde14610322578063c87b56dd1461033e578063e985e9c51461036e578063f2fde38b1461039e57610121565b80636352211e1461026057806370a0823114610290578063715018a6146102c05780638da5cb5b146102ca57806395d89b41146102e857610121565b806323b872dd116100f457806323b872dd146101c057806342842e0e146101dc57806342966c68146101f85780634d3c4b2b146102145780636346cf7b1461024457610121565b806301ffc9a71461012657806306fdde0314610156578063081812fc14610174578063095ea7b3146101a4575b600080fd5b610140600480360381019061013b9190611b8d565b6103ba565b60405161014d9190611bd5565b60405180910390f35b61015e6103cc565b60405161016b9190611c80565b60405180910390f35b61018e60048036038101906101899190611cd8565b61045e565b60405161019b9190611d46565b60405180910390f35b6101be60048036038101906101b99190611d8d565b61047a565b005b6101da60048036038101906101d59190611dcd565b610490565b005b6101f660048036038101906101f19190611dcd565b610592565b005b610212600480360381019061020d9190611cd8565b6105b2565b005b61022e60048036038101906102299190611cd8565b6105c9565b60405161023b9190611e2f565b60405180910390f35b61025e60048036038101906102599190611f7f565b6105e6565b005b61027a60048036038101906102759190611cd8565b610643565b6040516102879190611d46565b60405180910390f35b6102aa60048036038101906102a59190611fee565b610655565b6040516102b79190611e2f565b60405180910390f35b6102c861070f565b005b6102d2610723565b6040516102df9190611d46565b60405180910390f35b6102f061074d565b6040516102fd9190611c80565b60405180910390f35b610320600480360381019061031b9190612047565b6107df565b005b61033c60048036038101906103379190612128565b6107f5565b005b61035860048036038101906103539190611cd8565b610812565b6040516103659190611c80565b60405180910390f35b610388600480360381019061038391906121ab565b610824565b6040516103959190611bd5565b60405180910390f35b6103b860048036038101906103b39190611fee565b6108b8565b005b60006103c58261093e565b9050919050565b6060600080546103db9061221a565b80601f01602080910402602001604051908101604052809291908181526020018280546104079061221a565b80156104545780601f1061042957610100808354040283529160200191610454565b820191906000526020600020905b81548152906001019060200180831161043757829003601f168201915b5050505050905090565b60006104698261099f565b5061047382610a27565b9050919050565b61048c8282610487610a64565b610a6c565b5050565b600073ffffffffffffffffffffffffffffffffffffffff168273ffffffffffffffffffffffffffffffffffffffff16036105025760006040517f64a0ae920000000000000000000000000000000000000000000000000000000081526004016104f99190611d46565b60405180910390fd5b60006105168383610511610a64565b610a7e565b90508373ffffffffffffffffffffffffffffffffffffffff168173ffffffffffffffffffffffffffffffffffffffff161461058c578382826040517f64283d7b0000000000000000000000000000000000000000000000000000000081526004016105839392919061224b565b60405180910390fd5b50505050565b6105ad838383604051806020016040528060008152506107f5565b505050565b6105c56000826105c0610a64565b610a7e565b5050565b600060086000838152602001908152602001600020549050919050565b6105f03384610c98565b6105fa8383610cb6565b80600860008581526020019081526020016000208190555061063e600960009054906101000a900473ffffffffffffffffffffffffffffffffffffffff168461047a565b505050565b600061064e8261099f565b9050919050565b60008073ffffffffffffffffffffffffffffffffffffffff168273ffffffffffffffffffffffffffffffffffffffff16036106c85760006040517f89c62b640000000000000000000000000000000000000000000000000000000081526004016106bf9190611d46565b60405180910390fd5b600360008373ffffffffffffffffffffffffffffffffffffffff1673ffffffffffffffffffffffffffffffffffffffff168152602001908152602001600020549050919050565b610717610d12565b6107216000610d99565b565b6000600760009054906101000a900473ffffffffffffffffffffffffffffffffffffffff16905090565b60606001805461075c9061221a565b80601f01602080910402602001604051908101604052809291908181526020018280546107889061221a565b80156107d55780601f106107aa576101008083540402835291602001916107d5565b820191906000526020600020905b8154815290600101906020018083116107b857829003601f168201915b5050505050905090565b6107f16107ea610a64565b8383610e5f565b5050565b610800848484610490565b61080c84848484610fce565b50505050565b606061081d82611185565b9050919050565b6000600560008473ffffffffffffffffffffffffffffffffffffffff1673ffffffffffffffffffffffffffffffffffffffff16815260200190815260200160002060008373ffffffffffffffffffffffffffffffffffffffff1673ffffffffffffffffffffffffffffffffffffffff16815260200190815260200160002060009054906101000a900460ff16905092915050565b6108c0610d12565b600073ffffffffffffffffffffffffffffffffffffffff168173ffffffffffffffffffffffffffffffffffffffff16036109325760006040517f1e4fbdf70000000000000000000000000000000000000000000000000000000081526004016109299190611d46565b60405180910390fd5b61093b81610d99565b50565b6000634906490660e01b7bffffffffffffffffffffffffffffffffffffffffffffffffffffffff1916827bffffffffffffffffffffffffffffffffffffffffffffffffffffffff19161480610998575061099782611298565b5b9050919050565b6000806109ab8361137a565b9050600073ffffffffffffffffffffffffffffffffffffffff168173ffffffffffffffffffffffffffffffffffffffff1603610a1e57826040517f7e273289000000000000000000000000000000000000000000000000000000008152600401610a159190611e2f565b60405180910390fd5b80915050919050565b60006004600083815260200190815260200160002060009054906101000a900473ffffffffffffffffffffffffffffffffffffffff169050919050565b600033905090565b610a7983838360016113b7565b505050565b600080610a8a8461137a565b9050600073ffffffffffffffffffffffffffffffffffffffff168373ffffffffffffffffffffffffffffffffffffffff1614610acc57610acb81848661157c565b5b600073ffffffffffffffffffffffffffffffffffffffff168173ffffffffffffffffffffffffffffffffffffffff1614610b5d57610b0e6000856000806113b7565b6001600360008373ffffffffffffffffffffffffffffffffffffffff1673ffffffffffffffffffffffffffffffffffffffff168152602001908152602001600020600082825403925050819055505b600073ffffffffffffffffffffffffffffffffffffffff168573ffffffffffffffffffffffffffffffffffffffff1614610be0576001600360008773ffffffffffffffffffffffffffffffffffffffff1673ffffffffffffffffffffffffffffffffffffffff168152602001908152602001600020600082825401925050819055505b846002600086815260200190815260200160002060006101000a81548173ffffffffffffffffffffffffffffffffffffffff021916908373ffffffffffffffffffffffffffffffffffffffff160217905550838573ffffffffffffffffffffffffffffffffffffffff168273ffffffffffffffffffffffffffffffffffffffff167fddf252ad1be2c89b69c2b068fc378daa952ba7f163c4a11628f55a4df523b3ef60405160405180910390a4809150509392505050565b610cb2828260405180602001604052806000815250611640565b5050565b80600660008481526020019081526020016000209081610cd6919061242e565b507ff8e1a15aba9398e019f0b49df1a4fde98ee17ae345cb5f6b5e2c27f5033e8ce782604051610d069190611e2f565b60405180910390a15050565b610d1a610a64565b73ffffffffffffffffffffffffffffffffffffffff16610d38610723565b73ffffffffffffffffffffffffffffffffffffffff1614610d9757610d5b610a64565b6040517f118cdaa7000000000000000000000000000000000000000000000000000000008152600401610d8e9190611d46565b60405180910390fd5b565b6000600760009054906101000a900473ffffffffffffffffffffffffffffffffffffffff16905081600760006101000a81548173ffffffffffffffffffffffffffffffffffffffff021916908373ffffffffffffffffffffffffffffffffffffffff1602179055508173ffffffffffffffffffffffffffffffffffffffff168173ffffffffffffffffffffffffffffffffffffffff167f8be0079c531659141344cd1fd0a4f28419497f9722a3daafe3b4186f6b6457e060405160405180910390a35050565b600073ffffffffffffffffffffffffffffffffffffffff168273ffffffffffffffffffffffffffffffffffffffff1603610ed057816040517f5b08ba18000000000000000000000000000000000000000000000000000000008152600401610ec79190611d46565b60405180910390fd5b80600560008573ffffffffffffffffffffffffffffffffffffffff1673ffffffffffffffffffffffffffffffffffffffff16815260200190815260200160002060008473ffffffffffffffffffffffffffffffffffffffff1673ffffffffffffffffffffffffffffffffffffffff16815260200190815260200160002060006101000a81548160ff0219169083151502179055508173ffffffffffffffffffffffffffffffffffffffff168373ffffffffffffffffffffffffffffffffffffffff167f17307eab39ab6107e8899845ad3d59bd9653f200f220920489ca2b5937696c3183604051610fc19190611bd5565b60405180910390a3505050565b60008373ffffffffffffffffffffffffffffffffffffffff163b111561117f578273ffffffffffffffffffffffffffffffffffffffff1663150b7a02611012610a64565b8685856040518563ffffffff1660e01b81526004016110349493929190612555565b6020604051808303816000875af192505050801561107057506040513d601f19601f8201168201806040525081019061106d91906125b6565b60015b6110f4573d80600081146110a0576040519150601f19603f3d011682016040523d82523d6000602084013e6110a5565b606091505b5060008151036110ec57836040517f64a0ae920000000000000000000000000000000000000000000000000000000081526004016110e39190611d46565b60405180910390fd5b805181602001fd5b63150b7a0260e01b7bffffffffffffffffffffffffffffffffffffffffffffffffffffffff1916817bffffffffffffffffffffffffffffffffffffffffffffffffffffffff19161461117d57836040517f64a0ae920000000000000000000000000000000000000000000000000000000081526004016111749190611d46565b60405180910390fd5b505b50505050565b60606111908261099f565b5060006006600084815260200190815260200160002080546111b19061221a565b80601f01602080910402602001604051908101604052809291908181526020018280546111dd9061221a565b801561122a5780601f106111ff5761010080835404028352916020019161122a565b820191906000526020600020905b81548152906001019060200180831161120d57829003601f168201915b50505050509050600061123b61165c565b90506000815103611250578192505050611293565b60008251111561128557808260405160200161126d92919061261f565b60405160208183030381529060405292505050611293565b61128e84611673565b925050505b919050565b60007f80ac58cd000000000000000000000000000000000000000000000000000000007bffffffffffffffffffffffffffffffffffffffffffffffffffffffff1916827bffffffffffffffffffffffffffffffffffffffffffffffffffffffff1916148061136357507f5b5e139f000000000000000000000000000000000000000000000000000000007bffffffffffffffffffffffffffffffffffffffffffffffffffffffff1916827bffffffffffffffffffffffffffffffffffffffffffffffffffffffff1916145b806113735750611372826116dc565b5b9050919050565b60006002600083815260200190815260200160002060009054906101000a900473ffffffffffffffffffffffffffffffffffffffff169050919050565b80806113f05750600073ffffffffffffffffffffffffffffffffffffffff168273ffffffffffffffffffffffffffffffffffffffff1614155b156115245760006114008461099f565b9050600073ffffffffffffffffffffffffffffffffffffffff168373ffffffffffffffffffffffffffffffffffffffff161415801561146b57508273ffffffffffffffffffffffffffffffffffffffff168173ffffffffffffffffffffffffffffffffffffffff1614155b801561147e575061147c8184610824565b155b156114c057826040517fa9fbf51f0000000000000000000000000000000000000000000000000000000081526004016114b79190611d46565b60405180910390fd5b811561152257838573ffffffffffffffffffffffffffffffffffffffff168273ffffffffffffffffffffffffffffffffffffffff167f8c5be1e5ebec7d5bd14f71427d1e84f3dd0314c0f7b2291e5b200ac8c7c3b92560405160405180910390a45b505b836004600085815260200190815260200160002060006101000a81548173ffffffffffffffffffffffffffffffffffffffff021916908373ffffffffffffffffffffffffffffffffffffffff16021790555050505050565b611587838383611746565b61163b57600073ffffffffffffffffffffffffffffffffffffffff168373ffffffffffffffffffffffffffffffffffffffff16036115fc57806040517f7e2732890000000000000000000000000000000000000000000000000000000081526004016115f39190611e2f565b60405180910390fd5b81816040517f177e802f000000000000000000000000000000000000000000000000000000008152600401611632929190612643565b60405180910390fd5b505050565b61164a8383611807565b6116576000848484610fce565b505050565b606060405180602001604052806000815250905090565b606061167e8261099f565b50600061168961165c565b905060008151116116a957604051806020016040528060008152506116d4565b806116b384611900565b6040516020016116c492919061261f565b6040516020818303038152906040525b915050919050565b60007f01ffc9a7000000000000000000000000000000000000000000000000000000007bffffffffffffffffffffffffffffffffffffffffffffffffffffffff1916827bffffffffffffffffffffffffffffffffffffffffffffffffffffffff1916149050919050565b60008073ffffffffffffffffffffffffffffffffffffffff168373ffffffffffffffffffffffffffffffffffffffff16141580156117fe57508273ffffffffffffffffffffffffffffffffffffffff168473ffffffffffffffffffffffffffffffffffffffff1614806117bf57506117be8484610824565b5b806117fd57508273ffffffffffffffffffffffffffffffffffffffff166117e583610a27565b73ffffffffffffffffffffffffffffffffffffffff16145b5b90509392505050565b600073ffffffffffffffffffffffffffffffffffffffff168273ffffffffffffffffffffffffffffffffffffffff16036118795760006040517f64a0ae920000000000000000000000000000000000000000000000000000000081526004016118709190611d46565b60405180910390fd5b600061188783836000610a7e565b9050600073ffffffffffffffffffffffffffffffffffffffff168173ffffffffffffffffffffffffffffffffffffffff16146118fb5760006040517f73c6ac6e0000000000000000000000000000000000000000000000000000000081526004016118f29190611d46565b60405180910390fd5b505050565b60606000600161190f846119ce565b01905060008167ffffffffffffffff81111561192e5761192d611e54565b5b6040519080825280601f01601f1916602001820160405280156119605781602001600182028036833780820191505090505b509050600082602001820190505b6001156119c3578080600190039150507f3031323334353637383961626364656600000000000000000000000000000000600a86061a8153600a85816119b7576119b661266c565b5b0494506000850361196e575b819350505050919050565b600080600090507a184f03e93ff9f4daa797ed6e38ed64bf6a1f0100000000000000008310611a2c577a184f03e93ff9f4daa797ed6e38ed64bf6a1f0100000000000000008381611a2257611a2161266c565b5b0492506040810190505b6d04ee2d6d415b85acef81000000008310611a69576d04ee2d6d415b85acef81000000008381611a5f57611a5e61266c565b5b0492506020810190505b662386f26fc100008310611a9857662386f26fc100008381611a8e57611a8d61266c565b5b0492506010810190505b6305f5e1008310611ac1576305f5e1008381611ab757611ab661266c565b5b0492506008810190505b6127108310611ae6576127108381611adc57611adb61266c565b5b0492506004810190505b60648310611b095760648381611aff57611afe61266c565b5b0492506002810190505b600a8310611b18576001810190505b80915050919050565b6000604051905090565b600080fd5b600080fd5b60007fffffffff0000000000000000000000000000000000000000000000000000000082169050919050565b611b6a81611b35565b8114611b7557600080fd5b50565b600081359050611b8781611b61565b92915050565b600060208284031215611ba357611ba2611b2b565b5b6000611bb184828501611b78565b91505092915050565b60008115159050919050565b611bcf81611bba565b82525050565b6000602082019050611bea6000830184611bc6565b92915050565b600081519050919050565b600082825260208201905092915050565b60005b83811015611c2a578082015181840152602081019050611c0f565b60008484015250505050565b6000601f19601f8301169050919050565b6000611c5282611bf0565b611c5c8185611bfb565b9350611c6c818560208601611c0c565b611c7581611c36565b840191505092915050565b60006020820190508181036000830152611c9a8184611c47565b905092915050565b6000819050919050565b611cb581611ca2565b8114611cc057600080fd5b50565b600081359050611cd281611cac565b92915050565b600060208284031215611cee57611ced611b2b565b5b6000611cfc84828501611cc3565b91505092915050565b600073ffffffffffffffffffffffffffffffffffffffff82169050919050565b6000611d3082611d05565b9050919050565b611d4081611d25565b82525050565b6000602082019050611d5b6000830184611d37565b92915050565b611d6a81611d25565b8114611d7557600080fd5b50565b600081359050611d8781611d61565b92915050565b60008060408385031215611da457611da3611b2b565b5b6000611db285828601611d78565b9250506020611dc385828601611cc3565b9150509250929050565b600080600060608486031215611de657611de5611b2b565b5b6000611df486828701611d78565b9350506020611e0586828701611d78565b9250506040611e1686828701611cc3565b9150509250925092565b611e2981611ca2565b82525050565b6000602082019050611e446000830184611e20565b92915050565b600080fd5b600080fd5b7f4e487b7100000000000000000000000000000000000000000000000000000000600052604160045260246000fd5b611e8c82611c36565b810181811067ffffffffffffffff82111715611eab57611eaa611e54565b5b80604052505050565b6000611ebe611b21565b9050611eca8282611e83565b919050565b600067ffffffffffffffff821115611eea57611ee9611e54565b5b611ef382611c36565b9050602081019050919050565b82818337600083830152505050565b6000611f22611f1d84611ecf565b611eb4565b905082815260208101848484011115611f3e57611f3d611e4f565b5b611f49848285611f00565b509392505050565b600082601f830112611f6657611f65611e4a565b5b8135611f76848260208601611f0f565b91505092915050565b600080600060608486031215611f9857611f97611b2b565b5b6000611fa686828701611cc3565b935050602084013567ffffffffffffffff811115611fc757611fc6611b30565b5b611fd386828701611f51565b9250506040611fe486828701611cc3565b9150509250925092565b60006020828403121561200457612003611b2b565b5b600061201284828501611d78565b91505092915050565b61202481611bba565b811461202f57600080fd5b50565b6000813590506120418161201b565b92915050565b6000806040838503121561205e5761205d611b2b565b5b600061206c85828601611d78565b925050602061207d85828601612032565b9150509250929050565b600067ffffffffffffffff8211156120a2576120a1611e54565b5b6120ab82611c36565b9050602081019050919050565b60006120cb6120c684612087565b611eb4565b9050828152602081018484840111156120e7576120e6611e4f565b5b6120f2848285611f00565b509392505050565b600082601f83011261210f5761210e611e4a565b5b813561211f8482602086016120b8565b91505092915050565b6000806000806080858703121561214257612141611b2b565b5b600061215087828801611d78565b945050602061216187828801611d78565b935050604061217287828801611cc3565b925050606085013567ffffffffffffffff81111561219357612192611b30565b5b61219f878288016120fa565b91505092959194509250565b600080604083850312156121c2576121c1611b2b565b5b60006121d085828601611d78565b92505060206121e185828601611d78565b9150509250929050565b7f4e487b7100000000000000000000000000000000000000000000000000000000600052602260045260246000fd5b6000600282049050600182168061223257607f821691505b602082108103612245576122446121eb565b5b50919050565b60006060820190506122606000830186611d37565b61226d6020830185611e20565b61227a6040830184611d37565b949350505050565b60008190508160005260206000209050919050565b60006020601f8301049050919050565b600082821b905092915050565b6000600883026122e47fffffffffffffffffffffffffffffffffffffffffffffffffffffffffffffffff826122a7565b6122ee86836122a7565b95508019841693508086168417925050509392505050565b6000819050919050565b600061232b61232661232184611ca2565b612306565b611ca2565b9050919050565b6000819050919050565b61234583612310565b61235961235182612332565b8484546122b4565b825550505050565b600090565b61236e612361565b61237981848461233c565b505050565b5b8181101561239d57612392600082612366565b60018101905061237f565b5050565b601f8211156123e2576123b381612282565b6123bc84612297565b810160208510156123cb578190505b6123df6123d785612297565b83018261237e565b50505b505050565b600082821c905092915050565b6000612405600019846008026123e7565b1980831691505092915050565b600061241e83836123f4565b9150826002028217905092915050565b61243782611bf0565b67ffffffffffffffff8111156124505761244f611e54565b5b61245a825461221a565b6124658282856123a1565b600060209050601f8311600181146124985760008415612486578287015190505b6124908582612412565b8655506124f8565b601f1984166124a686612282565b60005b828110156124ce578489015182556001820191506020850194506020810190506124a9565b868310156124eb57848901516124e7601f8916826123f4565b8355505b6001600288020188555050505b505050505050565b600081519050919050565b600082825260208201905092915050565b600061252782612500565b612531818561250b565b9350612541818560208601611c0c565b61254a81611c36565b840191505092915050565b600060808201905061256a6000830187611d37565b6125776020830186611d37565b6125846040830185611e20565b8181036060830152612596818461251c565b905095945050505050565b6000815190506125b081611b61565b92915050565b6000602082840312156125cc576125cb611b2b565b5b60006125da848285016125a1565b91505092915050565b600081905092915050565b60006125f982611bf0565b61260381856125e3565b9350612613818560208601611c0c565b80840191505092915050565b600061262b82856125ee565b915061263782846125ee565b91508190509392505050565b60006040820190506126586000830185611d37565b6126656020830184611e20565b9392505050565b7f4e487b7100000000000000000000000000000000000000000000000000000000600052601260045260246000fdfea264697066735822122056b84fb4aeba0ab7c7ea54bea8c42cb8afc570d8230826d94a619052ef9d937b64736f6c63430008140033",
  "linkReferences": {},
  "deployedLinkReferences": {}
}