{
  "_format": "hh-sol-artifact-1",
  "contractName": "PrescriptionTokens",
  "sourceName": "contracts/PrescriptionTokens.sol",
  "abi": [
    {
      "inputs": [
        {
          "internalType": "address",
          "name": "initialOwner",
          "type": "address"
        }
      ],
      "stateMutability": "nonpayable",
      "type": "constructor"
    },
    {
      "inputs": [],
      "name": "ERC721EnumerableForbiddenBatchMint",
      "type": "error"
    },
    {
      "inputs": [
        {
          "internalType": "address",
          "name": "sender",
          "type": "address"
        },
        {
          "internalType": "uint256",
          "name": "tokenId",
          "type": "uint256"
        },
        {
          "internalType": "address",
          "name": "owner",
          "type": "address"
        }
      ],
      "name": "ERC721IncorrectOwner",
      "type": "error"
    },
    {
      "inputs": [
        {
          "internalType": "address",
          "name": "operator",
          "type": "address"
        },
        {
          "internalType": "uint256",
          "name": "tokenId",
          "type": "uint256"
        }
      ],
      "name": "ERC721InsufficientApproval",
      "type": "error"
    },
    {
      "inputs": [
        {
          "internalType": "address",
          "name": "approver",
          "type": "address"
        }
      ],
      "name": "ERC721InvalidApprover",
      "type": "error"
    },
    {
      "inputs": [
        {
          "internalType": "address",
          "name": "operator",
          "type": "address"
        }
      ],
      "name": "ERC721InvalidOperator",
      "type": "error"
    },
    {
      "inputs": [
        {
          "internalType": "address",
          "name": "owner",
          "type": "address"
        }
      ],
      "name": "ERC721InvalidOwner",
      "type": "error"
    },
    {
      "inputs": [
        {
          "internalType": "address",
          "name": "receiver",
          "type": "address"
        }
      ],
      "name": "ERC721InvalidReceiver",
      "type": "error"
    },
    {
      "inputs": [
        {
          "internalType": "address",
          "name": "sender",
          "type": "address"
        }
      ],
      "name": "ERC721InvalidSender",
      "type": "error"
    },
    {
      "inputs": [
        {
          "internalType": "uint256",
          "name": "tokenId",
          "type": "uint256"
        }
      ],
      "name": "ERC721NonexistentToken",
      "type": "error"
    },
    {
      "inputs": [
        {
          "internalType": "address",
          "name": "owner",
          "type": "address"
        },
        {
          "internalType": "uint256",
          "name": "index",
          "type": "uint256"
        }
      ],
      "name": "ERC721OutOfBoundsIndex",
      "type": "error"
    },
    {
      "inputs": [
        {
          "internalType": "address",
          "name": "owner",
          "type": "address"
        }
      ],
      "name": "OwnableInvalidOwner",
      "type": "error"
    },
    {
      "inputs": [
        {
          "internalType": "address",
          "name": "account",
          "type": "address"
        }
      ],
      "name": "OwnableUnauthorizedAccount",
      "type": "error"
    },
    {
      "anonymous": false,
      "inputs": [
        {
          "indexed": true,
          "internalType": "address",
          "name": "owner",
          "type": "address"
        },
        {
          "indexed": true,
          "internalType": "address",
          "name": "approved",
          "type": "address"
        },
        {
          "indexed": true,
          "internalType": "uint256",
          "name": "tokenId",
          "type": "uint256"
        }
      ],
      "name": "Approval",
      "type": "event"
    },
    {
      "anonymous": false,
      "inputs": [
        {
          "indexed": true,
          "internalType": "address",
          "name": "owner",
          "type": "address"
        },
        {
          "indexed": true,
          "internalType": "address",
          "name": "operator",
          "type": "address"
        },
        {
          "indexed": false,
          "internalType": "bool",
          "name": "approved",
          "type": "bool"
        }
      ],
      "name": "ApprovalForAll",
      "type": "event"
    },
    {
      "anonymous": false,
      "inputs": [
        {
          "indexed": false,
          "internalType": "uint256",
          "name": "_fromTokenId",
          "type": "uint256"
        },
        {
          "indexed": false,
          "internalType": "uint256",
          "name": "_toTokenId",
          "type": "uint256"
        }
      ],
      "name": "BatchMetadataUpdate",
      "type": "event"
    },
    {
      "anonymous": false,
      "inputs": [
        {
          "indexed": false,
          "internalType": "uint256",
          "name": "_tokenId",
          "type": "uint256"
        }
      ],
      "name": "MetadataUpdate",
      "type": "event"
    },
    {
      "anonymous": false,
      "inputs": [
        {
          "indexed": true,
          "internalType": "address",
          "name": "previousOwner",
          "type": "address"
        },
        {
          "indexed": true,
          "internalType": "address",
          "name": "newOwner",
          "type": "address"
        }
      ],
      "name": "OwnershipTransferred",
      "type": "event"
    },
    {
      "anonymous": false,
      "inputs": [
        {
          "indexed": true,
          "internalType": "address",
          "name": "from",
          "type": "address"
        },
        {
          "indexed": true,
          "internalType": "address",
          "name": "to",
          "type": "address"
        },
        {
          "indexed": true,
          "internalType": "uint256",
          "name": "tokenId",
          "type": "uint256"
        }
      ],
      "name": "Transfer",
      "type": "event"
    },
    {
      "inputs": [
        {
          "internalType": "address",
          "name": "to",
          "type": "address"
        },
        {
          "internalType": "uint256",
          "name": "tokenId",
          "type": "uint256"
        }
      ],
      "name": "approve",
      "outputs": [],
      "stateMutability": "nonpayable",
      "type": "function"
    },
    {
      "inputs": [
        {
          "internalType": "address",
          "name": "owner",
          "type": "address"
        }
      ],
      "name": "balanceOf",
      "outputs": [
        {
          "internalType": "uint256",
          "name": "",
          "type": "uint256"
        }
      ],
      "stateMutability": "view",
      "type": "function"
    },
    {
      "inputs": [
        {
          "internalType": "uint256",
          "name": "tokenId",
          "type": "uint256"
        }
      ],
      "name": "burn",
      "outputs": [],
      "stateMutability": "nonpayable",
      "type": "function"
    },
    {
      "inputs": [
        {
          "internalType": "uint256",
          "name": "tokenId",
          "type": "uint256"
        }
      ],
      "name": "getApproved",
      "outputs": [
        {
          "internalType": "address",
          "name": "",
          "type": "address"
        }
      ],
      "stateMutability": "view",
      "type": "function"
    },
    {
      "inputs": [],
      "name": "getMyTokens",
      "outputs": [
        {
          "internalType": "uint256[]",
          "name": "ids",
          "type": "uint256[]"
        },
        {
          "internalType": "string[]",
          "name": "uris",
          "type": "string[]"
        }
      ],
      "stateMutability": "view",
      "type": "function"
    },
    {
      "inputs": [
        {
          "internalType": "address",
          "name": "owner",
          "type": "address"
        },
        {
          "internalType": "address",
          "name": "operator",
          "type": "address"
        }
      ],
      "name": "isApprovedForAll",
      "outputs": [
        {
          "internalType": "bool",
          "name": "",
          "type": "bool"
        }
      ],
      "stateMutability": "view",
      "type": "function"
    },
    {
      "inputs": [
        {
          "internalType": "uint256",
          "name": "prescriptionToken",
          "type": "uint256"
        },
        {
          "internalType": "address",
          "name": "appointmentsContract",
          "type": "address"
        },
        {
          "internalType": "uint256",
          "name": "appointmentToken",
          "type": "uint256"
        },
        {
          "internalType": "address",
          "name": "hospital",
          "type": "address"
        }
      ],
      "name": "makeAppointment",
      "outputs": [],
      "stateMutability": "nonpayable",
      "type": "function"
    },
    {
      "inputs": [],
      "name": "name",
      "outputs": [
        {
          "internalType": "string",
          "name": "",
          "type": "string"
        }
      ],
      "stateMutability": "view",
      "type": "function"
    },
    {
      "inputs": [],
      "name": "owner",
      "outputs": [
        {
          "internalType": "address",
          "name": "",
          "type": "address"
        }
      ],
      "stateMutability": "view",
      "type": "function"
    },
    {
      "inputs": [
        {
          "internalType": "uint256",
          "name": "tokenId",
          "type": "uint256"
        }
      ],
      "name": "ownerOf",
      "outputs": [
        {
          "internalType": "address",
          "name": "",
          "type": "address"
        }
      ],
      "stateMutability": "view",
      "type": "function"
    },
    {
      "inputs": [],
      "name": "renounceOwnership",
      "outputs": [],
      "stateMutability": "nonpayable",
      "type": "function"
    },
    {
      "inputs": [
        {
          "internalType": "address",
          "name": "to",
          "type": "address"
        },
        {
          "internalType": "uint256",
          "name": "tokenId",
          "type": "uint256"
        },
        {
          "internalType": "string",
          "name": "uri",
          "type": "string"
        }
      ],
      "name": "safeMint",
      "outputs": [],
      "stateMutability": "nonpayable",
      "type": "function"
    },
    {
      "inputs": [
        {
          "internalType": "address",
          "name": "from",
          "type": "address"
        },
        {
          "internalType": "address",
          "name": "to",
          "type": "address"
        },
        {
          "internalType": "uint256",
          "name": "tokenId",
          "type": "uint256"
        }
      ],
      "name": "safeTransferFrom",
      "outputs": [],
      "stateMutability": "nonpayable",
      "type": "function"
    },
    {
      "inputs": [
        {
          "internalType": "address",
          "name": "from",
          "type": "address"
        },
        {
          "internalType": "address",
          "name": "to",
          "type": "address"
        },
        {
          "internalType": "uint256",
          "name": "tokenId",
          "type": "uint256"
        },
        {
          "internalType": "bytes",
          "name": "data",
          "type": "bytes"
        }
      ],
      "name": "safeTransferFrom",
      "outputs": [],
      "stateMutability": "nonpayable",
      "type": "function"
    },
    {
      "inputs": [
        {
          "internalType": "address",
          "name": "operator",
          "type": "address"
        },
        {
          "internalType": "bool",
          "name": "approved",
          "type": "bool"
        }
      ],
      "name": "setApprovalForAll",
      "outputs": [],
      "stateMutability": "nonpayable",
      "type": "function"
    },
    {
      "inputs": [
        {
          "internalType": "bytes4",
          "name": "interfaceId",
          "type": "bytes4"
        }
      ],
      "name": "supportsInterface",
      "outputs": [
        {
          "internalType": "bool",
          "name": "",
          "type": "bool"
        }
      ],
      "stateMutability": "view",
      "type": "function"
    },
    {
      "inputs": [],
      "name": "symbol",
      "outputs": [
        {
          "internalType": "string",
          "name": "",
          "type": "string"
        }
      ],
      "stateMutability": "view",
      "type": "function"
    },
    {
      "inputs": [
        {
          "internalType": "uint256",
          "name": "index",
          "type": "uint256"
        }
      ],
      "name": "tokenByIndex",
      "outputs": [
        {
          "internalType": "uint256",
          "name": "",
          "type": "uint256"
        }
      ],
      "stateMutability": "view",
      "type": "function"
    },
    {
      "inputs": [
        {
          "internalType": "address",
          "name": "owner",
          "type": "address"
        },
        {
          "internalType": "uint256",
          "name": "index",
          "type": "uint256"
        }
      ],
      "name": "tokenOfOwnerByIndex",
      "outputs": [
        {
          "internalType": "uint256",
          "name": "",
          "type": "uint256"
        }
      ],
      "stateMutability": "view",
      "type": "function"
    },
    {
      "inputs": [
        {
          "internalType": "uint256",
          "name": "tokenId",
          "type": "uint256"
        }
      ],
      "name": "tokenURI",
      "outputs": [
        {
          "internalType": "string",
          "name": "",
          "type": "string"
        }
      ],
      "stateMutability": "view",
      "type": "function"
    },
    {
      "inputs": [],
      "name": "totalSupply",
      "outputs": [
        {
          "internalType": "uint256",
          "name": "",
          "type": "uint256"
        }
      ],
      "stateMutability": "view",
      "type": "function"
    },
    {
      "inputs": [
        {
          "internalType": "address",
          "name": "from",
          "type": "address"
        },
        {
          "internalType": "address",
          "name": "to",
          "type": "address"
        },
        {
          "internalType": "uint256",
          "name": "tokenId",
          "type": "uint256"
        }
      ],
      "name": "transferFrom",
      "outputs": [],
      "stateMutability": "nonpayable",
      "type": "function"
    },
    {
      "inputs": [
        {
          "internalType": "address",
          "name": "newOwner",
          "type": "address"
        }
      ],
      "name": "transferOwnership",
      "outputs": [],
      "stateMutability": "nonpayable",
      "type": "function"
    }
  ],
  "bytecode": "0x60806040523480156200001157600080fd5b50604051620038ce380380620038ce833981810160405281019062000037919062000288565b806040518060400160405280600c81526020017f507265736372697074696f6e00000000000000000000000000000000000000008152506040518060400160405280600381526020017f50524500000000000000000000000000000000000000000000000000000000008152508160009081620000b5919062000534565b508060019081620000c7919062000534565b505050600073ffffffffffffffffffffffffffffffffffffffff168173ffffffffffffffffffffffffffffffffffffffff16036200013f5760006040517f1e4fbdf70000000000000000000000000000000000000000000000000000000081526004016200013691906200062c565b60405180910390fd5b62000150816200015860201b60201c565b505062000649565b6000600b60009054906101000a900473ffffffffffffffffffffffffffffffffffffffff16905081600b60006101000a81548173ffffffffffffffffffffffffffffffffffffffff021916908373ffffffffffffffffffffffffffffffffffffffff1602179055508173ffffffffffffffffffffffffffffffffffffffff168173ffffffffffffffffffffffffffffffffffffffff167f8be0079c531659141344cd1fd0a4f28419497f9722a3daafe3b4186f6b6457e060405160405180910390a35050565b600080fd5b600073ffffffffffffffffffffffffffffffffffffffff82169050919050565b6000620002508262000223565b9050919050565b620002628162000243565b81146200026e57600080fd5b50565b600081519050620002828162000257565b92915050565b600060208284031215620002a157620002a06200021e565b5b6000620002b18482850162000271565b91505092915050565b600081519050919050565b7f4e487b7100000000000000000000000000000000000000000000000000000000600052604160045260246000fd5b7f4e487b7100000000000000000000000000000000000000000000000000000000600052602260045260246000fd5b600060028204905060018216806200033c57607f821691505b602082108103620003525762000351620002f4565b5b50919050565b60008190508160005260206000209050919050565b60006020601f8301049050919050565b600082821b905092915050565b600060088302620003bc7fffffffffffffffffffffffffffffffffffffffffffffffffffffffffffffffff826200037d565b620003c886836200037d565b95508019841693508086168417925050509392505050565b6000819050919050565b6000819050919050565b6000620004156200040f6200040984620003e0565b620003ea565b620003e0565b9050919050565b6000819050919050565b6200043183620003f4565b6200044962000440826200041c565b8484546200038a565b825550505050565b600090565b6200046062000451565b6200046d81848462000426565b505050565b5b8181101562000495576200048960008262000456565b60018101905062000473565b5050565b601f821115620004e457620004ae8162000358565b620004b9846200036d565b81016020851015620004c9578190505b620004e1620004d8856200036d565b83018262000472565b50505b505050565b600082821c905092915050565b60006200050960001984600802620004e9565b1980831691505092915050565b6000620005248383620004f6565b9150826002028217905092915050565b6200053f82620002ba565b67ffffffffffffffff8111156200055b576200055a620002c5565b5b62000567825462000323565b6200057482828562000499565b600060209050601f831160018114620005ac576000841562000597578287015190505b620005a3858262000516565b86555062000613565b601f198416620005bc8662000358565b60005b82811015620005e657848901518255600182019150602085019450602081019050620005bf565b8683101562000606578489015162000602601f891682620004f6565b8355505b6001600288020188555050505b505050505050565b620006268162000243565b82525050565b60006020820190506200064360008301846200061b565b92915050565b61327580620006596000396000f3fe608060405234801561001057600080fd5b506004361061014d5760003560e01c80635b3b136a116100c3578063a22cb4651161007c578063a22cb4651461039f578063b88d4fde146103bb578063c87b56dd146103d7578063cd279c7c14610407578063e985e9c514610423578063f2fde38b146104535761014d565b80635b3b136a146102da5780636352211e146102f957806370a0823114610329578063715018a6146103595780638da5cb5b1461036357806395d89b41146103815761014d565b806323b872dd1161011557806323b872dd1461020a5780632f745c591461022657806342842e0e1461025657806342966c68146102725780634e2fbe171461028e5780634f6ccce7146102aa5761014d565b806301ffc9a71461015257806306fdde0314610182578063081812fc146101a0578063095ea7b3146101d057806318160ddd146101ec575b600080fd5b61016c60048036038101906101679190612389565b61046f565b60405161017991906123d1565b60405180910390f35b61018a610481565b604051610197919061247c565b60405180910390f35b6101ba60048036038101906101b591906124d4565b610513565b6040516101c79190612542565b60405180910390f35b6101ea60048036038101906101e59190612589565b61052f565b005b6101f4610545565b60405161020191906125d8565b60405180910390f35b610224600480360381019061021f91906125f3565b610552565b005b610240600480360381019061023b9190612589565b610654565b60405161024d91906125d8565b60405180910390f35b610270600480360381019061026b91906125f3565b6106fd565b005b61028c600480360381019061028791906124d4565b61071d565b005b6102a860048036038101906102a39190612646565b610734565b005b6102c460048036038101906102bf91906124d4565b6107b4565b6040516102d191906125d8565b60405180910390f35b6102e261082a565b6040516102f0929190612877565b60405180910390f35b610313600480360381019061030e91906124d4565b61096b565b6040516103209190612542565b60405180910390f35b610343600480360381019061033e91906128ae565b61097d565b60405161035091906125d8565b60405180910390f35b610361610a37565b005b61036b610a4b565b6040516103789190612542565b60405180910390f35b610389610a75565b604051610396919061247c565b60405180910390f35b6103b960048036038101906103b49190612907565b610b07565b005b6103d560048036038101906103d09190612a7c565b610b1d565b005b6103f160048036038101906103ec91906124d4565b610b3a565b6040516103fe919061247c565b60405180910390f35b610421600480360381019061041c9190612ba0565b610b4c565b005b61043d60048036038101906104389190612c0f565b610b6d565b60405161044a91906123d1565b60405180910390f35b61046d600480360381019061046891906128ae565b610c01565b005b600061047a82610c87565b9050919050565b60606000805461049090612c7e565b80601f01602080910402602001604051908101604052809291908181526020018280546104bc90612c7e565b80156105095780601f106104de57610100808354040283529160200191610509565b820191906000526020600020905b8154815290600101906020018083116104ec57829003601f168201915b5050505050905090565b600061051e82610ce8565b5061052882610d70565b9050919050565b610541828261053c610dad565b610db5565b5050565b6000600880549050905090565b600073ffffffffffffffffffffffffffffffffffffffff168273ffffffffffffffffffffffffffffffffffffffff16036105c45760006040517f64a0ae920000000000000000000000000000000000000000000000000000000081526004016105bb9190612542565b60405180910390fd5b60006105d883836105d3610dad565b610dc7565b90508373ffffffffffffffffffffffffffffffffffffffff168173ffffffffffffffffffffffffffffffffffffffff161461064e578382826040517f64283d7b00000000000000000000000000000000000000000000000000000000815260040161064593929190612caf565b60405180910390fd5b50505050565b600061065f8361097d565b82106106a45782826040517fa57d13dc00000000000000000000000000000000000000000000000000000000815260040161069b929190612ce6565b60405180910390fd5b600660008473ffffffffffffffffffffffffffffffffffffffff1673ffffffffffffffffffffffffffffffffffffffff168152602001908152602001600020600083815260200190815260200160002054905092915050565b61071883838360405180602001604052806000815250610b1d565b505050565b61073060008261072b610dad565b610dc7565b5050565b61073f3382866106fd565b8273ffffffffffffffffffffffffffffffffffffffff166342842e0e8233856040518463ffffffff1660e01b815260040161077c93929190612d0f565b600060405180830381600087803b15801561079657600080fd5b505af11580156107aa573d6000803e3d6000fd5b5050505050505050565b60006107be610545565b8210610804576000826040517fa57d13dc0000000000000000000000000000000000000000000000000000000081526004016107fb929190612ce6565b60405180910390fd5b6008828154811061081857610817612d46565b5b90600052602060002001549050919050565b60608060006108383361097d565b90508067ffffffffffffffff81111561085457610853612951565b5b6040519080825280602002602001820160405280156108825781602001602082028036833780820191505090505b5092508067ffffffffffffffff81111561089f5761089e612951565b5b6040519080825280602002602001820160405280156108d257816020015b60608152602001906001900390816108bd5790505b50915060005b6108e13361097d565b811015610965576108f23382610654565b84828151811061090557610904612d46565b5b60200260200101818152505061093484828151811061092757610926612d46565b5b6020026020010151610b3a565b83828151811061094757610946612d46565b5b6020026020010181905250808061095d90612da4565b9150506108d8565b50509091565b600061097682610ce8565b9050919050565b60008073ffffffffffffffffffffffffffffffffffffffff168273ffffffffffffffffffffffffffffffffffffffff16036109f05760006040517f89c62b640000000000000000000000000000000000000000000000000000000081526004016109e79190612542565b60405180910390fd5b600360008373ffffffffffffffffffffffffffffffffffffffff1673ffffffffffffffffffffffffffffffffffffffff168152602001908152602001600020549050919050565b610a3f610ddd565b610a496000610e64565b565b6000600b60009054906101000a900473ffffffffffffffffffffffffffffffffffffffff16905090565b606060018054610a8490612c7e565b80601f0160208091040260200160405190810160405280929190818152602001828054610ab090612c7e565b8015610afd5780601f10610ad257610100808354040283529160200191610afd565b820191906000526020600020905b815481529060010190602001808311610ae057829003601f168201915b5050505050905090565b610b19610b12610dad565b8383610f2a565b5050565b610b28848484610552565b610b3484848484611099565b50505050565b6060610b4582611250565b9050919050565b610b54610ddd565b610b5e8383611363565b610b688282611381565b505050565b6000600560008473ffffffffffffffffffffffffffffffffffffffff1673ffffffffffffffffffffffffffffffffffffffff16815260200190815260200160002060008373ffffffffffffffffffffffffffffffffffffffff1673ffffffffffffffffffffffffffffffffffffffff16815260200190815260200160002060009054906101000a900460ff16905092915050565b610c09610ddd565b600073ffffffffffffffffffffffffffffffffffffffff168173ffffffffffffffffffffffffffffffffffffffff1603610c7b5760006040517f1e4fbdf7000000000000000000000000000000000000000000000000000000008152600401610c729190612542565b60405180910390fd5b610c8481610e64565b50565b6000634906490660e01b7bffffffffffffffffffffffffffffffffffffffffffffffffffffffff1916827bffffffffffffffffffffffffffffffffffffffffffffffffffffffff19161480610ce15750610ce0826113dd565b5b9050919050565b600080610cf483611457565b9050600073ffffffffffffffffffffffffffffffffffffffff168173ffffffffffffffffffffffffffffffffffffffff1603610d6757826040517f7e273289000000000000000000000000000000000000000000000000000000008152600401610d5e91906125d8565b60405180910390fd5b80915050919050565b60006004600083815260200190815260200160002060009054906101000a900473ffffffffffffffffffffffffffffffffffffffff169050919050565b600033905090565b610dc28383836001611494565b505050565b6000610dd4848484611659565b90509392505050565b610de5610dad565b73ffffffffffffffffffffffffffffffffffffffff16610e03610a4b565b73ffffffffffffffffffffffffffffffffffffffff1614610e6257610e26610dad565b6040517f118cdaa7000000000000000000000000000000000000000000000000000000008152600401610e599190612542565b60405180910390fd5b565b6000600b60009054906101000a900473ffffffffffffffffffffffffffffffffffffffff16905081600b60006101000a81548173ffffffffffffffffffffffffffffffffffffffff021916908373ffffffffffffffffffffffffffffffffffffffff1602179055508173ffffffffffffffffffffffffffffffffffffffff168173ffffffffffffffffffffffffffffffffffffffff167f8be0079c531659141344cd1fd0a4f28419497f9722a3daafe3b4186f6b6457e060405160405180910390a35050565b600073ffffffffffffffffffffffffffffffffffffffff168273ffffffffffffffffffffffffffffffffffffffff1603610f9b57816040517f5b08ba18000000000000000000000000000000000000000000000000000000008152600401610f929190612542565b60405180910390fd5b80600560008573ffffffffffffffffffffffffffffffffffffffff1673ffffffffffffffffffffffffffffffffffffffff16815260200190815260200160002060008473ffffffffffffffffffffffffffffffffffffffff1673ffffffffffffffffffffffffffffffffffffffff16815260200190815260200160002060006101000a81548160ff0219169083151502179055508173ffffffffffffffffffffffffffffffffffffffff168373ffffffffffffffffffffffffffffffffffffffff167f17307eab39ab6107e8899845ad3d59bd9653f200f220920489ca2b5937696c318360405161108c91906123d1565b60405180910390a3505050565b60008373ffffffffffffffffffffffffffffffffffffffff163b111561124a578273ffffffffffffffffffffffffffffffffffffffff1663150b7a026110dd610dad565b8685856040518563ffffffff1660e01b81526004016110ff9493929190612e41565b6020604051808303816000875af192505050801561113b57506040513d601f19601f820116820180604052508101906111389190612ea2565b60015b6111bf573d806000811461116b576040519150601f19603f3d011682016040523d82523d6000602084013e611170565b606091505b5060008151036111b757836040517f64a0ae920000000000000000000000000000000000000000000000000000000081526004016111ae9190612542565b60405180910390fd5b805181602001fd5b63150b7a0260e01b7bffffffffffffffffffffffffffffffffffffffffffffffffffffffff1916817bffffffffffffffffffffffffffffffffffffffffffffffffffffffff19161461124857836040517f64a0ae9200000000000000000000000000000000000000000000000000000000815260040161123f9190612542565b60405180910390fd5b505b50505050565b606061125b82610ce8565b506000600a6000848152602001908152602001600020805461127c90612c7e565b80601f01602080910402602001604051908101604052809291908181526020018280546112a890612c7e565b80156112f55780601f106112ca576101008083540402835291602001916112f5565b820191906000526020600020905b8154815290600101906020018083116112d857829003601f168201915b505050505090506000611306611776565b9050600081510361131b57819250505061135e565b600082511115611350578082604051602001611338929190612f0b565b6040516020818303038152906040529250505061135e565b6113598461178d565b925050505b919050565b61137d8282604051806020016040528060008152506117f6565b5050565b80600a600084815260200190815260200160002090816113a191906130db565b507ff8e1a15aba9398e019f0b49df1a4fde98ee17ae345cb5f6b5e2c27f5033e8ce7826040516113d191906125d8565b60405180910390a15050565b60007f780e9d63000000000000000000000000000000000000000000000000000000007bffffffffffffffffffffffffffffffffffffffffffffffffffffffff1916827bffffffffffffffffffffffffffffffffffffffffffffffffffffffff19161480611450575061144f82611812565b5b9050919050565b60006002600083815260200190815260200160002060009054906101000a900473ffffffffffffffffffffffffffffffffffffffff169050919050565b80806114cd5750600073ffffffffffffffffffffffffffffffffffffffff168273ffffffffffffffffffffffffffffffffffffffff1614155b156116015760006114dd84610ce8565b9050600073ffffffffffffffffffffffffffffffffffffffff168373ffffffffffffffffffffffffffffffffffffffff161415801561154857508273ffffffffffffffffffffffffffffffffffffffff168173ffffffffffffffffffffffffffffffffffffffff1614155b801561155b57506115598184610b6d565b155b1561159d57826040517fa9fbf51f0000000000000000000000000000000000000000000000000000000081526004016115949190612542565b60405180910390fd5b81156115ff57838573ffffffffffffffffffffffffffffffffffffffff168273ffffffffffffffffffffffffffffffffffffffff167f8c5be1e5ebec7d5bd14f71427d1e84f3dd0314c0f7b2291e5b200ac8c7c3b92560405160405180910390a45b505b836004600085815260200190815260200160002060006101000a81548173ffffffffffffffffffffffffffffffffffffffff021916908373ffffffffffffffffffffffffffffffffffffffff16021790555050505050565b6000806116678585856118f4565b9050600073ffffffffffffffffffffffffffffffffffffffff168173ffffffffffffffffffffffffffffffffffffffff16036116ab576116a684611b0e565b6116ea565b8473ffffffffffffffffffffffffffffffffffffffff168173ffffffffffffffffffffffffffffffffffffffff16146116e9576116e88185611b57565b5b5b600073ffffffffffffffffffffffffffffffffffffffff168573ffffffffffffffffffffffffffffffffffffffff160361172c5761172784611cb8565b61176b565b8473ffffffffffffffffffffffffffffffffffffffff168173ffffffffffffffffffffffffffffffffffffffff161461176a576117698585611d89565b5b5b809150509392505050565b606060405180602001604052806000815250905090565b606061179882610ce8565b5060006117a3611776565b905060008151116117c357604051806020016040528060008152506117ee565b806117cd84611e14565b6040516020016117de929190612f0b565b6040516020818303038152906040525b915050919050565b6118008383611ee2565b61180d6000848484611099565b505050565b60007f80ac58cd000000000000000000000000000000000000000000000000000000007bffffffffffffffffffffffffffffffffffffffffffffffffffffffff1916827bffffffffffffffffffffffffffffffffffffffffffffffffffffffff191614806118dd57507f5b5e139f000000000000000000000000000000000000000000000000000000007bffffffffffffffffffffffffffffffffffffffffffffffffffffffff1916827bffffffffffffffffffffffffffffffffffffffffffffffffffffffff1916145b806118ed57506118ec82611fdb565b5b9050919050565b60008061190084611457565b9050600073ffffffffffffffffffffffffffffffffffffffff168373ffffffffffffffffffffffffffffffffffffffff161461194257611941818486612045565b5b600073ffffffffffffffffffffffffffffffffffffffff168173ffffffffffffffffffffffffffffffffffffffff16146119d357611984600085600080611494565b6001600360008373ffffffffffffffffffffffffffffffffffffffff1673ffffffffffffffffffffffffffffffffffffffff168152602001908152602001600020600082825403925050819055505b600073ffffffffffffffffffffffffffffffffffffffff168573ffffffffffffffffffffffffffffffffffffffff1614611a56576001600360008773ffffffffffffffffffffffffffffffffffffffff1673ffffffffffffffffffffffffffffffffffffffff168152602001908152602001600020600082825401925050819055505b846002600086815260200190815260200160002060006101000a81548173ffffffffffffffffffffffffffffffffffffffff021916908373ffffffffffffffffffffffffffffffffffffffff160217905550838573ffffffffffffffffffffffffffffffffffffffff168273ffffffffffffffffffffffffffffffffffffffff167fddf252ad1be2c89b69c2b068fc378daa952ba7f163c4a11628f55a4df523b3ef60405160405180910390a4809150509392505050565b6008805490506009600083815260200190815260200160002081905550600881908060018154018082558091505060019003906000526020600020016000909190919091505550565b6000611b628361097d565b9050600060076000848152602001908152602001600020549050818114611c47576000600660008673ffffffffffffffffffffffffffffffffffffffff1673ffffffffffffffffffffffffffffffffffffffff168152602001908152602001600020600084815260200190815260200160002054905080600660008773ffffffffffffffffffffffffffffffffffffffff1673ffffffffffffffffffffffffffffffffffffffff168152602001908152602001600020600084815260200190815260200160002081905550816007600083815260200190815260200160002081905550505b6007600084815260200190815260200160002060009055600660008573ffffffffffffffffffffffffffffffffffffffff1673ffffffffffffffffffffffffffffffffffffffff16815260200190815260200160002060008381526020019081526020016000206000905550505050565b60006001600880549050611ccc91906131ad565b9050600060096000848152602001908152602001600020549050600060088381548110611cfc57611cfb612d46565b5b906000526020600020015490508060088381548110611d1e57611d1d612d46565b5b906000526020600020018190555081600960008381526020019081526020016000208190555060096000858152602001908152602001600020600090556008805480611d6d57611d6c6131e1565b5b6001900381819060005260206000200160009055905550505050565b60006001611d968461097d565b611da091906131ad565b905081600660008573ffffffffffffffffffffffffffffffffffffffff1673ffffffffffffffffffffffffffffffffffffffff168152602001908152602001600020600083815260200190815260200160002081905550806007600084815260200190815260200160002081905550505050565b606060006001611e2384612109565b01905060008167ffffffffffffffff811115611e4257611e41612951565b5b6040519080825280601f01601f191660200182016040528015611e745781602001600182028036833780820191505090505b509050600082602001820190505b600115611ed7578080600190039150507f3031323334353637383961626364656600000000000000000000000000000000600a86061a8153600a8581611ecb57611eca613210565b5b04945060008503611e82575b819350505050919050565b600073ffffffffffffffffffffffffffffffffffffffff168273ffffffffffffffffffffffffffffffffffffffff1603611f545760006040517f64a0ae92000000000000000000000000000000000000000000000000000000008152600401611f4b9190612542565b60405180910390fd5b6000611f6283836000610dc7565b9050600073ffffffffffffffffffffffffffffffffffffffff168173ffffffffffffffffffffffffffffffffffffffff1614611fd65760006040517f73c6ac6e000000000000000000000000000000000000000000000000000000008152600401611fcd9190612542565b60405180910390fd5b505050565b60007f01ffc9a7000000000000000000000000000000000000000000000000000000007bffffffffffffffffffffffffffffffffffffffffffffffffffffffff1916827bffffffffffffffffffffffffffffffffffffffffffffffffffffffff1916149050919050565b61205083838361225c565b61210457600073ffffffffffffffffffffffffffffffffffffffff168373ffffffffffffffffffffffffffffffffffffffff16036120c557806040517f7e2732890000000000000000000000000000000000000000000000000000000081526004016120bc91906125d8565b60405180910390fd5b81816040517f177e802f0000000000000000000000000000000000000000000000000000000081526004016120fb929190612ce6565b60405180910390fd5b505050565b600080600090507a184f03e93ff9f4daa797ed6e38ed64bf6a1f0100000000000000008310612167577a184f03e93ff9f4daa797ed6e38ed64bf6a1f010000000000000000838161215d5761215c613210565b5b0492506040810190505b6d04ee2d6d415b85acef810000000083106121a4576d04ee2d6d415b85acef8100000000838161219a57612199613210565b5b0492506020810190505b662386f26fc1000083106121d357662386f26fc1000083816121c9576121c8613210565b5b0492506010810190505b6305f5e10083106121fc576305f5e10083816121f2576121f1613210565b5b0492506008810190505b612710831061222157612710838161221757612216613210565b5b0492506004810190505b60648310612244576064838161223a57612239613210565b5b0492506002810190505b600a8310612253576001810190505b80915050919050565b60008073ffffffffffffffffffffffffffffffffffffffff168373ffffffffffffffffffffffffffffffffffffffff161415801561231457508273ffffffffffffffffffffffffffffffffffffffff168473ffffffffffffffffffffffffffffffffffffffff1614806122d557506122d48484610b6d565b5b8061231357508273ffffffffffffffffffffffffffffffffffffffff166122fb83610d70565b73ffffffffffffffffffffffffffffffffffffffff16145b5b90509392505050565b6000604051905090565b600080fd5b600080fd5b60007fffffffff0000000000000000000000000000000000000000000000000000000082169050919050565b61236681612331565b811461237157600080fd5b50565b6000813590506123838161235d565b92915050565b60006020828403121561239f5761239e612327565b5b60006123ad84828501612374565b91505092915050565b60008115159050919050565b6123cb816123b6565b82525050565b60006020820190506123e660008301846123c2565b92915050565b600081519050919050565b600082825260208201905092915050565b60005b8381101561242657808201518184015260208101905061240b565b60008484015250505050565b6000601f19601f8301169050919050565b600061244e826123ec565b61245881856123f7565b9350612468818560208601612408565b61247181612432565b840191505092915050565b600060208201905081810360008301526124968184612443565b905092915050565b6000819050919050565b6124b18161249e565b81146124bc57600080fd5b50565b6000813590506124ce816124a8565b92915050565b6000602082840312156124ea576124e9612327565b5b60006124f8848285016124bf565b91505092915050565b600073ffffffffffffffffffffffffffffffffffffffff82169050919050565b600061252c82612501565b9050919050565b61253c81612521565b82525050565b60006020820190506125576000830184612533565b92915050565b61256681612521565b811461257157600080fd5b50565b6000813590506125838161255d565b92915050565b600080604083850312156125a05761259f612327565b5b60006125ae85828601612574565b92505060206125bf858286016124bf565b9150509250929050565b6125d28161249e565b82525050565b60006020820190506125ed60008301846125c9565b92915050565b60008060006060848603121561260c5761260b612327565b5b600061261a86828701612574565b935050602061262b86828701612574565b925050604061263c868287016124bf565b9150509250925092565b600080600080608085870312156126605761265f612327565b5b600061266e878288016124bf565b945050602061267f87828801612574565b9350506040612690878288016124bf565b92505060606126a187828801612574565b91505092959194509250565b600081519050919050565b600082825260208201905092915050565b6000819050602082019050919050565b6126e28161249e565b82525050565b60006126f483836126d9565b60208301905092915050565b6000602082019050919050565b6000612718826126ad565b61272281856126b8565b935061272d836126c9565b8060005b8381101561275e57815161274588826126e8565b975061275083612700565b925050600181019050612731565b5085935050505092915050565b600081519050919050565b600082825260208201905092915050565b6000819050602082019050919050565b600082825260208201905092915050565b60006127b3826123ec565b6127bd8185612797565b93506127cd818560208601612408565b6127d681612432565b840191505092915050565b60006127ed83836127a8565b905092915050565b6000602082019050919050565b600061280d8261276b565b6128178185612776565b93508360208202850161282985612787565b8060005b85811015612865578484038952815161284685826127e1565b9450612851836127f5565b925060208a0199505060018101905061282d565b50829750879550505050505092915050565b60006040820190508181036000830152612891818561270d565b905081810360208301526128a58184612802565b90509392505050565b6000602082840312156128c4576128c3612327565b5b60006128d284828501612574565b91505092915050565b6128e4816123b6565b81146128ef57600080fd5b50565b600081359050612901816128db565b92915050565b6000806040838503121561291e5761291d612327565b5b600061292c85828601612574565b925050602061293d858286016128f2565b9150509250929050565b600080fd5b600080fd5b7f4e487b7100000000000000000000000000000000000000000000000000000000600052604160045260246000fd5b61298982612432565b810181811067ffffffffffffffff821117156129a8576129a7612951565b5b80604052505050565b60006129bb61231d565b90506129c78282612980565b919050565b600067ffffffffffffffff8211156129e7576129e6612951565b5b6129f082612432565b9050602081019050919050565b82818337600083830152505050565b6000612a1f612a1a846129cc565b6129b1565b905082815260208101848484011115612a3b57612a3a61294c565b5b612a468482856129fd565b509392505050565b600082601f830112612a6357612a62612947565b5b8135612a73848260208601612a0c565b91505092915050565b60008060008060808587031215612a9657612a95612327565b5b6000612aa487828801612574565b9450506020612ab587828801612574565b9350506040612ac6878288016124bf565b925050606085013567ffffffffffffffff811115612ae757612ae661232c565b5b612af387828801612a4e565b91505092959194509250565b600067ffffffffffffffff821115612b1a57612b19612951565b5b612b2382612432565b9050602081019050919050565b6000612b43612b3e84612aff565b6129b1565b905082815260208101848484011115612b5f57612b5e61294c565b5b612b6a8482856129fd565b509392505050565b600082601f830112612b8757612b86612947565b5b8135612b97848260208601612b30565b91505092915050565b600080600060608486031215612bb957612bb8612327565b5b6000612bc786828701612574565b9350506020612bd8868287016124bf565b925050604084013567ffffffffffffffff811115612bf957612bf861232c565b5b612c0586828701612b72565b9150509250925092565b60008060408385031215612c2657612c25612327565b5b6000612c3485828601612574565b9250506020612c4585828601612574565b9150509250929050565b7f4e487b7100000000000000000000000000000000000000000000000000000000600052602260045260246000fd5b60006002820490506001821680612c9657607f821691505b602082108103612ca957612ca8612c4f565b5b50919050565b6000606082019050612cc46000830186612533565b612cd160208301856125c9565b612cde6040830184612533565b949350505050565b6000604082019050612cfb6000830185612533565b612d0860208301846125c9565b9392505050565b6000606082019050612d246000830186612533565b612d316020830185612533565b612d3e60408301846125c9565b949350505050565b7f4e487b7100000000000000000000000000000000000000000000000000000000600052603260045260246000fd5b7f4e487b7100000000000000000000000000000000000000000000000000000000600052601160045260246000fd5b6000612daf8261249e565b91507fffffffffffffffffffffffffffffffffffffffffffffffffffffffffffffffff8203612de157612de0612d75565b5b600182019050919050565b600081519050919050565b600082825260208201905092915050565b6000612e1382612dec565b612e1d8185612df7565b9350612e2d818560208601612408565b612e3681612432565b840191505092915050565b6000608082019050612e566000830187612533565b612e636020830186612533565b612e7060408301856125c9565b8181036060830152612e828184612e08565b905095945050505050565b600081519050612e9c8161235d565b92915050565b600060208284031215612eb857612eb7612327565b5b6000612ec684828501612e8d565b91505092915050565b600081905092915050565b6000612ee5826123ec565b612eef8185612ecf565b9350612eff818560208601612408565b80840191505092915050565b6000612f178285612eda565b9150612f238284612eda565b91508190509392505050565b60008190508160005260206000209050919050565b60006020601f8301049050919050565b600082821b905092915050565b600060088302612f917fffffffffffffffffffffffffffffffffffffffffffffffffffffffffffffffff82612f54565b612f9b8683612f54565b95508019841693508086168417925050509392505050565b6000819050919050565b6000612fd8612fd3612fce8461249e565b612fb3565b61249e565b9050919050565b6000819050919050565b612ff283612fbd565b613006612ffe82612fdf565b848454612f61565b825550505050565b600090565b61301b61300e565b613026818484612fe9565b505050565b5b8181101561304a5761303f600082613013565b60018101905061302c565b5050565b601f82111561308f5761306081612f2f565b61306984612f44565b81016020851015613078578190505b61308c61308485612f44565b83018261302b565b50505b505050565b600082821c905092915050565b60006130b260001984600802613094565b1980831691505092915050565b60006130cb83836130a1565b9150826002028217905092915050565b6130e4826123ec565b67ffffffffffffffff8111156130fd576130fc612951565b5b6131078254612c7e565b61311282828561304e565b600060209050601f8311600181146131455760008415613133578287015190505b61313d85826130bf565b8655506131a5565b601f19841661315386612f2f565b60005b8281101561317b57848901518255600182019150602085019450602081019050613156565b868310156131985784890151613194601f8916826130a1565b8355505b6001600288020188555050505b505050505050565b60006131b88261249e565b91506131c38361249e565b92508282039050818111156131db576131da612d75565b5b92915050565b7f4e487b7100000000000000000000000000000000000000000000000000000000600052603160045260246000fd5b7f4e487b7100000000000000000000000000000000000000000000000000000000600052601260045260246000fdfea2646970667358221220898ad1d672f023a0a1adeee3c31f994a6e13145c17a24e4c33883dd91813067e64736f6c63430008140033",
  "linkReferences": {},
  "deployedLinkReferences": {}
}